{
  "_format": "hh-sol-artifact-1",
  "contractName": "Exchange",
  "sourceName": "contracts/Exchange.sol",
  "abi": [
    {
      "inputs": [],
      "stateMutability": "nonpayable",
      "type": "constructor"
    },
    {
      "anonymous": false,
      "inputs": [
        {
          "indexed": true,
          "internalType": "address",
          "name": "owner",
          "type": "address"
        },
        {
          "indexed": true,
          "internalType": "address",
          "name": "spender",
          "type": "address"
        },
        {
          "indexed": false,
          "internalType": "uint256",
          "name": "value",
          "type": "uint256"
        }
      ],
      "name": "Approval",
      "type": "event"
    },
    {
      "anonymous": false,
      "inputs": [
        {
          "indexed": true,
          "internalType": "address",
          "name": "from",
          "type": "address"
        },
        {
          "indexed": true,
          "internalType": "address",
          "name": "to",
          "type": "address"
        },
        {
          "indexed": false,
          "internalType": "uint256",
          "name": "value",
          "type": "uint256"
        }
      ],
      "name": "Transfer",
      "type": "event"
    },
    {
      "inputs": [
        {
          "internalType": "uint256",
          "name": "_tokenAmount",
          "type": "uint256"
        },
        {
          "internalType": "address",
          "name": "_tokenAddress",
          "type": "address"
        }
      ],
      "name": "addLiquidity",
      "outputs": [
        {
          "internalType": "uint256",
          "name": "",
          "type": "uint256"
        }
      ],
      "stateMutability": "payable",
      "type": "function"
    },
    {
      "inputs": [
        {
          "internalType": "address",
          "name": "owner",
          "type": "address"
        },
        {
          "internalType": "address",
          "name": "spender",
          "type": "address"
        }
      ],
      "name": "allowance",
      "outputs": [
        {
          "internalType": "uint256",
          "name": "",
          "type": "uint256"
        }
      ],
      "stateMutability": "view",
      "type": "function"
    },
    {
      "inputs": [
        {
          "internalType": "address",
          "name": "spender",
          "type": "address"
        },
        {
          "internalType": "uint256",
          "name": "amount",
          "type": "uint256"
        }
      ],
      "name": "approve",
      "outputs": [
        {
          "internalType": "bool",
          "name": "",
          "type": "bool"
        }
      ],
      "stateMutability": "nonpayable",
      "type": "function"
    },
    {
      "inputs": [
        {
          "internalType": "address",
          "name": "account",
          "type": "address"
        }
      ],
      "name": "balanceOf",
      "outputs": [
        {
          "internalType": "uint256",
          "name": "",
          "type": "uint256"
        }
      ],
      "stateMutability": "view",
      "type": "function"
    },
    {
      "inputs": [
        {
          "internalType": "uint256",
          "name": "_inputAmount",
          "type": "uint256"
        },
        {
          "internalType": "uint256",
          "name": "_inputReserve",
          "type": "uint256"
        },
        {
          "internalType": "uint256",
          "name": "_outputReserve",
          "type": "uint256"
        }
      ],
      "name": "calculateOutputAmount",
      "outputs": [
        {
          "internalType": "uint256",
          "name": "",
          "type": "uint256"
        }
      ],
      "stateMutability": "pure",
      "type": "function"
    },
    {
      "inputs": [],
      "name": "decimals",
      "outputs": [
        {
          "internalType": "uint8",
          "name": "",
          "type": "uint8"
        }
      ],
      "stateMutability": "view",
      "type": "function"
    },
    {
      "inputs": [
        {
          "internalType": "address",
          "name": "spender",
          "type": "address"
        },
        {
          "internalType": "uint256",
          "name": "subtractedValue",
          "type": "uint256"
        }
      ],
      "name": "decreaseAllowance",
      "outputs": [
        {
          "internalType": "bool",
          "name": "",
          "type": "bool"
        }
      ],
      "stateMutability": "nonpayable",
      "type": "function"
    },
    {
      "inputs": [
        {
          "internalType": "uint256",
          "name": "_minTokenAmount",
          "type": "uint256"
        },
        {
          "internalType": "address",
          "name": "_tokenAddress",
          "type": "address"
        }
      ],
      "name": "exchangeEthToToken",
      "outputs": [],
      "stateMutability": "payable",
      "type": "function"
    },
    {
      "inputs": [
        {
          "internalType": "uint256",
          "name": "_tokenAmount",
          "type": "uint256"
        },
        {
          "internalType": "uint256",
          "name": "_minEthAmount",
          "type": "uint256"
        },
        {
          "internalType": "address",
          "name": "_tokenAddress",
          "type": "address"
        }
      ],
      "name": "exchangeTokenToEth",
      "outputs": [],
      "stateMutability": "nonpayable",
      "type": "function"
    },
    {
      "inputs": [
        {
          "internalType": "address",
          "name": "_tokenAddress",
          "type": "address"
        }
      ],
      "name": "getTokenAndReserve",
      "outputs": [
        {
          "internalType": "contract IERC20",
          "name": "",
          "type": "address"
        },
        {
          "internalType": "uint256",
          "name": "",
          "type": "uint256"
        }
      ],
      "stateMutability": "view",
      "type": "function"
    },
    {
      "inputs": [
        {
          "internalType": "address",
          "name": "spender",
          "type": "address"
        },
        {
          "internalType": "uint256",
          "name": "addedValue",
          "type": "uint256"
        }
      ],
      "name": "increaseAllowance",
      "outputs": [
        {
          "internalType": "bool",
          "name": "",
          "type": "bool"
        }
      ],
      "stateMutability": "nonpayable",
      "type": "function"
    },
    {
      "inputs": [],
      "name": "name",
      "outputs": [
        {
          "internalType": "string",
          "name": "",
          "type": "string"
        }
      ],
      "stateMutability": "view",
      "type": "function"
    },
    {
      "inputs": [
        {
          "internalType": "uint256",
          "name": "_lpAmount",
          "type": "uint256"
        },
        {
          "internalType": "address",
          "name": "_tokenAddress",
          "type": "address"
        }
      ],
      "name": "removeLiquidity",
      "outputs": [
        {
          "internalType": "uint256",
          "name": "",
          "type": "uint256"
        },
        {
          "internalType": "uint256",
          "name": "",
          "type": "uint256"
        }
      ],
      "stateMutability": "nonpayable",
      "type": "function"
    },
    {
      "inputs": [],
      "name": "symbol",
      "outputs": [
        {
          "internalType": "string",
          "name": "",
          "type": "string"
        }
      ],
      "stateMutability": "view",
      "type": "function"
    },
    {
      "inputs": [],
      "name": "totalSupply",
      "outputs": [
        {
          "internalType": "uint256",
          "name": "",
          "type": "uint256"
        }
      ],
      "stateMutability": "view",
      "type": "function"
    },
    {
      "inputs": [
        {
          "internalType": "address",
          "name": "to",
          "type": "address"
        },
        {
          "internalType": "uint256",
          "name": "amount",
          "type": "uint256"
        }
      ],
      "name": "transfer",
      "outputs": [
        {
          "internalType": "bool",
          "name": "",
          "type": "bool"
        }
      ],
      "stateMutability": "nonpayable",
      "type": "function"
    },
    {
      "inputs": [
        {
          "internalType": "address",
          "name": "from",
          "type": "address"
        },
        {
          "internalType": "address",
          "name": "to",
          "type": "address"
        },
        {
          "internalType": "uint256",
          "name": "amount",
          "type": "uint256"
        }
      ],
      "name": "transferFrom",
      "outputs": [
        {
          "internalType": "bool",
          "name": "",
          "type": "bool"
        }
      ],
      "stateMutability": "nonpayable",
      "type": "function"
    }
  ],
  "bytecode": "0x60806040523480156200001157600080fd5b506040518060400160405280601581526020017f4d7920426f79732044657673204c5020546f6b656e00000000000000000000008152506040518060400160405280600481526020017f4d424c500000000000000000000000000000000000000000000000000000000081525081600390816200008f919062000324565b508060049081620000a1919062000324565b5050506200040b565b600081519050919050565b7f4e487b7100000000000000000000000000000000000000000000000000000000600052604160045260246000fd5b7f4e487b7100000000000000000000000000000000000000000000000000000000600052602260045260246000fd5b600060028204905060018216806200012c57607f821691505b602082108103620001425762000141620000e4565b5b50919050565b60008190508160005260206000209050919050565b60006020601f8301049050919050565b600082821b905092915050565b600060088302620001ac7fffffffffffffffffffffffffffffffffffffffffffffffffffffffffffffffff826200016d565b620001b886836200016d565b95508019841693508086168417925050509392505050565b6000819050919050565b6000819050919050565b600062000205620001ff620001f984620001d0565b620001da565b620001d0565b9050919050565b6000819050919050565b6200022183620001e4565b6200023962000230826200020c565b8484546200017a565b825550505050565b600090565b6200025062000241565b6200025d81848462000216565b505050565b5b8181101562000285576200027960008262000246565b60018101905062000263565b5050565b601f821115620002d4576200029e8162000148565b620002a9846200015d565b81016020851015620002b9578190505b620002d1620002c8856200015d565b83018262000262565b50505b505050565b600082821c905092915050565b6000620002f960001984600802620002d9565b1980831691505092915050565b6000620003148383620002e6565b9150826002028217905092915050565b6200032f82620000aa565b67ffffffffffffffff8111156200034b576200034a620000b5565b5b62000357825462000113565b6200036482828562000289565b600060209050601f8311600181146200039c576000841562000387578287015190505b62000393858262000306565b86555062000403565b601f198416620003ac8662000148565b60005b82811015620003d657848901518255600182019150602085019450602081019050620003af565b86831015620003f65784890151620003f2601f891682620002e6565b8355505b6001600288020188555050505b505050505050565b612898806200041b6000396000f3fe6080604052600436106100fe5760003560e01c806370a0823111610095578063a9059cbb11610064578063a9059cbb14610385578063c38ae12f146103c2578063c95f9d0e146103de578063ccac373f1461040e578063dd62ed3e1461044b576100fe565b806370a08231146102b757806395d89b41146102f45780639616ee7f1461031f578063a457c2d714610348576100fe565b806323b872dd116100d157806323b872dd146101d45780632b12cb7614610211578063313ce5671461024f578063395093511461027a576100fe565b806305fe138b1461010357806306fdde0314610141578063095ea7b31461016c57806318160ddd146101a9575b600080fd5b34801561010f57600080fd5b5061012a600480360381019061012591906119ce565b610488565b604051610138929190611a1d565b60405180910390f35b34801561014d57600080fd5b5061015661067f565b6040516101639190611ad6565b60405180910390f35b34801561017857600080fd5b50610193600480360381019061018e9190611af8565b610711565b6040516101a09190611b53565b60405180910390f35b3480156101b557600080fd5b506101be610734565b6040516101cb9190611b6e565b60405180910390f35b3480156101e057600080fd5b506101fb60048036038101906101f69190611b89565b61073e565b6040516102089190611b53565b60405180910390f35b34801561021d57600080fd5b5061023860048036038101906102339190611bdc565b61076d565b604051610246929190611c68565b60405180910390f35b34801561025b57600080fd5b5061026461086b565b6040516102719190611cad565b60405180910390f35b34801561028657600080fd5b506102a1600480360381019061029c9190611af8565b610874565b6040516102ae9190611b53565b60405180910390f35b3480156102c357600080fd5b506102de60048036038101906102d99190611bdc565b6108ab565b6040516102eb9190611b6e565b60405180910390f35b34801561030057600080fd5b506103096108f3565b6040516103169190611ad6565b60405180910390f35b34801561032b57600080fd5b5061034660048036038101906103419190611cc8565b610985565b005b34801561035457600080fd5b5061036f600480360381019061036a9190611af8565b610b77565b60405161037c9190611b53565b60405180910390f35b34801561039157600080fd5b506103ac60048036038101906103a79190611af8565b610bee565b6040516103b99190611b53565b60405180910390f35b6103dc60048036038101906103d791906119ce565b610c11565b005b6103f860048036038101906103f391906119ce565b610d7f565b6040516104059190611b6e565b60405180910390f35b34801561041a57600080fd5b5061043560048036038101906104309190611d1b565b611015565b6040516104429190611b6e565b60405180910390f35b34801561045757600080fd5b50610472600480360381019061046d9190611d6e565b6110ae565b60405161047f9190611b6e565b60405180910390f35b60008082600073ffffffffffffffffffffffffffffffffffffffff168173ffffffffffffffffffffffffffffffffffffffff16036104fb576040517f08c379a00000000000000000000000000000000000000000000000000000000081526004016104f290611e20565b60405180910390fd5b846000810361053f576040517f08c379a000000000000000000000000000000000000000000000000000000000815260040161053690611eb2565b60405180910390fd5b60008061054b8761076d565b809250819350505060004790506000610562610734565b90506000818b846105739190611f01565b61057d9190611f72565b90506000828c8661058e9190611f01565b6105989190611f72565b90506105a4338d611135565b3373ffffffffffffffffffffffffffffffffffffffff166108fc839081150290604051600060405180830381858888f193505050501580156105ea573d6000803e3d6000fd5b508573ffffffffffffffffffffffffffffffffffffffff1663a9059cbb33836040518363ffffffff1660e01b8152600401610626929190611fb2565b6020604051808303816000875af1158015610645573d6000803e3d6000fd5b505050506040513d601f19601f820116820180604052508101906106699190612007565b5081819950995050505050505050509250929050565b60606003805461068e90612063565b80601f01602080910402602001604051908101604052809291908181526020018280546106ba90612063565b80156107075780601f106106dc57610100808354040283529160200191610707565b820191906000526020600020905b8154815290600101906020018083116106ea57829003601f168201915b5050505050905090565b60008061071c611302565b905061072981858561130a565b600191505092915050565b6000600254905090565b600080610749611302565b90506107568582856114d3565b61076185858561155f565b60019150509392505050565b60008082600073ffffffffffffffffffffffffffffffffffffffff168173ffffffffffffffffffffffffffffffffffffffff16036107e0576040517f08c379a00000000000000000000000000000000000000000000000000000000081526004016107d790611e20565b60405180910390fd5b6000849050808173ffffffffffffffffffffffffffffffffffffffff166370a08231306040518263ffffffff1660e01b815260040161081f9190612094565b602060405180830381865afa15801561083c573d6000803e3d6000fd5b505050506040513d601f19601f8201168201806040525081019061086091906120c4565b935093505050915091565b60006012905090565b60008061087f611302565b90506108a081858561089185896110ae565b61089b91906120f1565b61130a565b600191505092915050565b60008060008373ffffffffffffffffffffffffffffffffffffffff1673ffffffffffffffffffffffffffffffffffffffff168152602001908152602001600020549050919050565b60606004805461090290612063565b80601f016020809104026020016040519081016040528092919081815260200182805461092e90612063565b801561097b5780601f106109505761010080835404028352916020019161097b565b820191906000526020600020905b81548152906001019060200180831161095e57829003601f168201915b5050505050905090565b80600073ffffffffffffffffffffffffffffffffffffffff168173ffffffffffffffffffffffffffffffffffffffff16036109f5576040517f08c379a00000000000000000000000000000000000000000000000000000000081526004016109ec90611e20565b60405180910390fd5b8360008103610a39576040517f08c379a0000000000000000000000000000000000000000000000000000000008152600401610a3090611eb2565b60405180910390fd5b600080610a458561076d565b809250819350505060004790506000610a5f898484611015565b905087811015610aa4576040517f08c379a0000000000000000000000000000000000000000000000000000000008152600401610a9b90612171565b60405180910390fd5b8373ffffffffffffffffffffffffffffffffffffffff166323b872dd33308c6040518463ffffffff1660e01b8152600401610ae193929190612191565b6020604051808303816000875af1158015610b00573d6000803e3d6000fd5b505050506040513d601f19601f82011682018060405250810190610b249190612007565b503373ffffffffffffffffffffffffffffffffffffffff166108fc829081150290604051600060405180830381858888f19350505050158015610b6b573d6000803e3d6000fd5b50505050505050505050565b600080610b82611302565b90506000610b9082866110ae565b905083811015610bd5576040517f08c379a0000000000000000000000000000000000000000000000000000000008152600401610bcc9061223a565b60405180910390fd5b610be2828686840361130a565b60019250505092915050565b600080610bf9611302565b9050610c0681858561155f565b600191505092915050565b80600073ffffffffffffffffffffffffffffffffffffffff168173ffffffffffffffffffffffffffffffffffffffff1603610c81576040517f08c379a0000000000000000000000000000000000000000000000000000000008152600401610c7890611e20565b60405180910390fd5b600080610c8d8461076d565b809250819350505060003447610ca3919061225a565b90506000610cb2348385611015565b905086811015610cf7576040517f08c379a0000000000000000000000000000000000000000000000000000000008152600401610cee90612171565b60405180910390fd5b8373ffffffffffffffffffffffffffffffffffffffff1663a9059cbb33836040518363ffffffff1660e01b8152600401610d32929190611fb2565b6020604051808303816000875af1158015610d51573d6000803e3d6000fd5b505050506040513d601f19601f82011682018060405250810190610d759190612007565b5050505050505050565b600081600073ffffffffffffffffffffffffffffffffffffffff168173ffffffffffffffffffffffffffffffffffffffff1603610df1576040517f08c379a0000000000000000000000000000000000000000000000000000000008152600401610de890611e20565b60405180910390fd5b8360008103610e35576040517f08c379a0000000000000000000000000000000000000000000000000000000008152600401610e2c90611eb2565b60405180910390fd5b600080610e418661076d565b809250819350505060004790506000808303610eea578373ffffffffffffffffffffffffffffffffffffffff166323b872dd33308c6040518463ffffffff1660e01b8152600401610e9493929190612191565b6020604051808303816000875af1158015610eb3573d6000803e3d6000fd5b505050506040513d601f19601f82011682018060405250810190610ed79190612007565b50819050610ee533826117d5565b611006565b60003483610ef8919061225a565b90506000813486610f099190611f01565b610f139190611f72565b9050808b1015610f58576040517f08c379a0000000000000000000000000000000000000000000000000000000008152600401610f4f90612300565b60405180910390fd5b8573ffffffffffffffffffffffffffffffffffffffff166323b872dd3330846040518463ffffffff1660e01b8152600401610f9593929190612191565b6020604051808303816000875af1158015610fb4573d6000803e3d6000fd5b505050506040513d601f19601f82011682018060405250810190610fd89190612007565b508134610fe3610734565b610fed9190611f01565b610ff79190611f72565b925061100333846117d5565b50505b80965050505050505092915050565b600080831180156110265750600082115b611065576040517f08c379a000000000000000000000000000000000000000000000000000000000815260040161105c9061236c565b60405180910390fd5b60006063856110749190611f01565b9050806064856110849190611f01565b61108e91906120f1565b818461109a9190611f01565b6110a49190611f72565b9150509392505050565b6000600160008473ffffffffffffffffffffffffffffffffffffffff1673ffffffffffffffffffffffffffffffffffffffff16815260200190815260200160002060008373ffffffffffffffffffffffffffffffffffffffff1673ffffffffffffffffffffffffffffffffffffffff16815260200190815260200160002054905092915050565b600073ffffffffffffffffffffffffffffffffffffffff168273ffffffffffffffffffffffffffffffffffffffff16036111a4576040517f08c379a000000000000000000000000000000000000000000000000000000000815260040161119b906123fe565b60405180910390fd5b6111b08260008361192b565b60008060008473ffffffffffffffffffffffffffffffffffffffff1673ffffffffffffffffffffffffffffffffffffffff16815260200190815260200160002054905081811015611236576040517f08c379a000000000000000000000000000000000000000000000000000000000815260040161122d90612490565b60405180910390fd5b8181036000808573ffffffffffffffffffffffffffffffffffffffff1673ffffffffffffffffffffffffffffffffffffffff1681526020019081526020016000208190555081600260008282540392505081905550600073ffffffffffffffffffffffffffffffffffffffff168373ffffffffffffffffffffffffffffffffffffffff167fddf252ad1be2c89b69c2b068fc378daa952ba7f163c4a11628f55a4df523b3ef846040516112e99190611b6e565b60405180910390a36112fd83600084611930565b505050565b600033905090565b600073ffffffffffffffffffffffffffffffffffffffff168373ffffffffffffffffffffffffffffffffffffffff1603611379576040517f08c379a000000000000000000000000000000000000000000000000000000000815260040161137090612522565b60405180910390fd5b600073ffffffffffffffffffffffffffffffffffffffff168273ffffffffffffffffffffffffffffffffffffffff16036113e8576040517f08c379a00000000000000000000000000000000000000000000000000000000081526004016113df906125b4565b60405180910390fd5b80600160008573ffffffffffffffffffffffffffffffffffffffff1673ffffffffffffffffffffffffffffffffffffffff16815260200190815260200160002060008473ffffffffffffffffffffffffffffffffffffffff1673ffffffffffffffffffffffffffffffffffffffff168152602001908152602001600020819055508173ffffffffffffffffffffffffffffffffffffffff168373ffffffffffffffffffffffffffffffffffffffff167f8c5be1e5ebec7d5bd14f71427d1e84f3dd0314c0f7b2291e5b200ac8c7c3b925836040516114c69190611b6e565b60405180910390a3505050565b60006114df84846110ae565b90507fffffffffffffffffffffffffffffffffffffffffffffffffffffffffffffffff8114611559578181101561154b576040517f08c379a000000000000000000000000000000000000000000000000000000000815260040161154290612620565b60405180910390fd5b611558848484840361130a565b5b50505050565b600073ffffffffffffffffffffffffffffffffffffffff168373ffffffffffffffffffffffffffffffffffffffff16036115ce576040517f08c379a00000000000000000000000000000000000000000000000000000000081526004016115c5906126b2565b60405180910390fd5b600073ffffffffffffffffffffffffffffffffffffffff168273ffffffffffffffffffffffffffffffffffffffff160361163d576040517f08c379a000000000000000000000000000000000000000000000000000000000815260040161163490612744565b60405180910390fd5b61164883838361192b565b60008060008573ffffffffffffffffffffffffffffffffffffffff1673ffffffffffffffffffffffffffffffffffffffff168152602001908152602001600020549050818110156116ce576040517f08c379a00000000000000000000000000000000000000000000000000000000081526004016116c5906127d6565b60405180910390fd5b8181036000808673ffffffffffffffffffffffffffffffffffffffff1673ffffffffffffffffffffffffffffffffffffffff16815260200190815260200160002081905550816000808573ffffffffffffffffffffffffffffffffffffffff1673ffffffffffffffffffffffffffffffffffffffff168152602001908152602001600020600082825401925050819055508273ffffffffffffffffffffffffffffffffffffffff168473ffffffffffffffffffffffffffffffffffffffff167fddf252ad1be2c89b69c2b068fc378daa952ba7f163c4a11628f55a4df523b3ef846040516117bc9190611b6e565b60405180910390a36117cf848484611930565b50505050565b600073ffffffffffffffffffffffffffffffffffffffff168273ffffffffffffffffffffffffffffffffffffffff1603611844576040517f08c379a000000000000000000000000000000000000000000000000000000000815260040161183b90612842565b60405180910390fd5b6118506000838361192b565b806002600082825461186291906120f1565b92505081905550806000808473ffffffffffffffffffffffffffffffffffffffff1673ffffffffffffffffffffffffffffffffffffffff168152602001908152602001600020600082825401925050819055508173ffffffffffffffffffffffffffffffffffffffff16600073ffffffffffffffffffffffffffffffffffffffff167fddf252ad1be2c89b69c2b068fc378daa952ba7f163c4a11628f55a4df523b3ef836040516119139190611b6e565b60405180910390a361192760008383611930565b5050565b505050565b505050565b600080fd5b6000819050919050565b61194d8161193a565b811461195857600080fd5b50565b60008135905061196a81611944565b92915050565b600073ffffffffffffffffffffffffffffffffffffffff82169050919050565b600061199b82611970565b9050919050565b6119ab81611990565b81146119b657600080fd5b50565b6000813590506119c8816119a2565b92915050565b600080604083850312156119e5576119e4611935565b5b60006119f38582860161195b565b9250506020611a04858286016119b9565b9150509250929050565b611a178161193a565b82525050565b6000604082019050611a326000830185611a0e565b611a3f6020830184611a0e565b9392505050565b600081519050919050565b600082825260208201905092915050565b60005b83811015611a80578082015181840152602081019050611a65565b60008484015250505050565b6000601f19601f8301169050919050565b6000611aa882611a46565b611ab28185611a51565b9350611ac2818560208601611a62565b611acb81611a8c565b840191505092915050565b60006020820190508181036000830152611af08184611a9d565b905092915050565b60008060408385031215611b0f57611b0e611935565b5b6000611b1d858286016119b9565b9250506020611b2e8582860161195b565b9150509250929050565b60008115159050919050565b611b4d81611b38565b82525050565b6000602082019050611b686000830184611b44565b92915050565b6000602082019050611b836000830184611a0e565b92915050565b600080600060608486031215611ba257611ba1611935565b5b6000611bb0868287016119b9565b9350506020611bc1868287016119b9565b9250506040611bd28682870161195b565b9150509250925092565b600060208284031215611bf257611bf1611935565b5b6000611c00848285016119b9565b91505092915050565b6000819050919050565b6000611c2e611c29611c2484611970565b611c09565b611970565b9050919050565b6000611c4082611c13565b9050919050565b6000611c5282611c35565b9050919050565b611c6281611c47565b82525050565b6000604082019050611c7d6000830185611c59565b611c8a6020830184611a0e565b9392505050565b600060ff82169050919050565b611ca781611c91565b82525050565b6000602082019050611cc26000830184611c9e565b92915050565b600080600060608486031215611ce157611ce0611935565b5b6000611cef8682870161195b565b9350506020611d008682870161195b565b9250506040611d11868287016119b9565b9150509250925092565b600080600060608486031215611d3457611d33611935565b5b6000611d428682870161195b565b9350506020611d538682870161195b565b9250506040611d648682870161195b565b9150509250925092565b60008060408385031215611d8557611d84611935565b5b6000611d93858286016119b9565b9250506020611da4858286016119b9565b9150509250929050565b7f546f6b656e2061646472657373207061737365642069732061206e756c6c206160008201527f6464726573730000000000000000000000000000000000000000000000000000602082015250565b6000611e0a602683611a51565b9150611e1582611dae565b604082019050919050565b60006020820190508181036000830152611e3981611dfd565b9050919050565b7f546f6b656e20616d6f756e742073686f756c642062652067726561746572207460008201527f68616e207a65726f000000000000000000000000000000000000000000000000602082015250565b6000611e9c602883611a51565b9150611ea782611e40565b604082019050919050565b60006020820190508181036000830152611ecb81611e8f565b9050919050565b7f4e487b7100000000000000000000000000000000000000000000000000000000600052601160045260246000fd5b6000611f0c8261193a565b9150611f178361193a565b9250828202611f258161193a565b91508282048414831517611f3c57611f3b611ed2565b5b5092915050565b7f4e487b7100000000000000000000000000000000000000000000000000000000600052601260045260246000fd5b6000611f7d8261193a565b9150611f888361193a565b925082611f9857611f97611f43565b5b828204905092915050565b611fac81611990565b82525050565b6000604082019050611fc76000830185611fa3565b611fd46020830184611a0e565b9392505050565b611fe481611b38565b8114611fef57600080fd5b50565b60008151905061200181611fdb565b92915050565b60006020828403121561201d5761201c611935565b5b600061202b84828501611ff2565b91505092915050565b7f4e487b7100000000000000000000000000000000000000000000000000000000600052602260045260246000fd5b6000600282049050600182168061207b57607f821691505b60208210810361208e5761208d612034565b5b50919050565b60006020820190506120a96000830184611fa3565b92915050565b6000815190506120be81611944565b92915050565b6000602082840312156120da576120d9611935565b5b60006120e8848285016120af565b91505092915050565b60006120fc8261193a565b91506121078361193a565b925082820190508082111561211f5761211e611ed2565b5b92915050565b7f696e73756666696369656e74206f757470757420616d6f756e74000000000000600082015250565b600061215b601a83611a51565b915061216682612125565b602082019050919050565b6000602082019050818103600083015261218a8161214e565b9050919050565b60006060820190506121a66000830186611fa3565b6121b36020830185611fa3565b6121c06040830184611a0e565b949350505050565b7f45524332303a2064656372656173656420616c6c6f77616e63652062656c6f7760008201527f207a65726f000000000000000000000000000000000000000000000000000000602082015250565b6000612224602583611a51565b915061222f826121c8565b604082019050919050565b6000602082019050818103600083015261225381612217565b9050919050565b60006122658261193a565b91506122708361193a565b925082820390508181111561228857612287611ed2565b5b92915050565b7f696e636f727265637420726174696f206f6620746f6b656e732070726f76696460008201527f6564000000000000000000000000000000000000000000000000000000000000602082015250565b60006122ea602283611a51565b91506122f58261228e565b604082019050919050565b60006020820190508181036000830152612319816122dd565b9050919050565b7f696e76616c696420726573657276657300000000000000000000000000000000600082015250565b6000612356601083611a51565b915061236182612320565b602082019050919050565b6000602082019050818103600083015261238581612349565b9050919050565b7f45524332303a206275726e2066726f6d20746865207a65726f2061646472657360008201527f7300000000000000000000000000000000000000000000000000000000000000602082015250565b60006123e8602183611a51565b91506123f38261238c565b604082019050919050565b60006020820190508181036000830152612417816123db565b9050919050565b7f45524332303a206275726e20616d6f756e7420657863656564732062616c616e60008201527f6365000000000000000000000000000000000000000000000000000000000000602082015250565b600061247a602283611a51565b91506124858261241e565b604082019050919050565b600060208201905081810360008301526124a98161246d565b9050919050565b7f45524332303a20617070726f76652066726f6d20746865207a65726f2061646460008201527f7265737300000000000000000000000000000000000000000000000000000000602082015250565b600061250c602483611a51565b9150612517826124b0565b604082019050919050565b6000602082019050818103600083015261253b816124ff565b9050919050565b7f45524332303a20617070726f766520746f20746865207a65726f20616464726560008201527f7373000000000000000000000000000000000000000000000000000000000000602082015250565b600061259e602283611a51565b91506125a982612542565b604082019050919050565b600060208201905081810360008301526125cd81612591565b9050919050565b7f45524332303a20696e73756666696369656e7420616c6c6f77616e6365000000600082015250565b600061260a601d83611a51565b9150612615826125d4565b602082019050919050565b60006020820190508181036000830152612639816125fd565b9050919050565b7f45524332303a207472616e736665722066726f6d20746865207a65726f20616460008201527f6472657373000000000000000000000000000000000000000000000000000000602082015250565b600061269c602583611a51565b91506126a782612640565b604082019050919050565b600060208201905081810360008301526126cb8161268f565b9050919050565b7f45524332303a207472616e7366657220746f20746865207a65726f206164647260008201527f6573730000000000000000000000000000000000000000000000000000000000602082015250565b600061272e602383611a51565b9150612739826126d2565b604082019050919050565b6000602082019050818103600083015261275d81612721565b9050919050565b7f45524332303a207472616e7366657220616d6f756e742065786365656473206260008201527f616c616e63650000000000000000000000000000000000000000000000000000602082015250565b60006127c0602683611a51565b91506127cb82612764565b604082019050919050565b600060208201905081810360008301526127ef816127b3565b9050919050565b7f45524332303a206d696e7420746f20746865207a65726f206164647265737300600082015250565b600061282c601f83611a51565b9150612837826127f6565b602082019050919050565b6000602082019050818103600083015261285b8161281f565b905091905056fea2646970667358221220677eac5966b92552405f93e92a6aa05b7ea398abe7f689cc9ad6a250e869720a64736f6c63430008110033",
  "linkReferences": {},
  "deployedLinkReferences": {}
}