{
  "_format": "hh-sol-artifact-1",
  "contractName": "TokenSender",
  "sourceName": "contracts/TokenSender.sol",
  "abi": [
    {
      "inputs": [
        {
          "internalType": "address",
          "name": "sender",
          "type": "address"
        },
        {
          "internalType": "uint256",
          "name": "amount",
          "type": "uint256"
        },
        {
          "internalType": "address",
          "name": "recipient",
          "type": "address"
        },
        {
          "internalType": "address",
          "name": "tokenContract",
          "type": "address"
        }
      ],
      "name": "getHash",
      "outputs": [
        {
          "internalType": "bytes32",
          "name": "",
          "type": "bytes32"
        }
      ],
      "stateMutability": "pure",
      "type": "function"
    },
    {
      "inputs": [
        {
          "internalType": "address",
          "name": "sender",
          "type": "address"
        },
        {
          "internalType": "uint256",
          "name": "amount",
          "type": "uint256"
        },
        {
          "internalType": "address",
          "name": "recipient",
          "type": "address"
        },
        {
          "internalType": "address",
          "name": "tokenContract",
          "type": "address"
        },
        {
          "internalType": "uint256",
          "name": "nonce",
          "type": "uint256"
        }
      ],
      "name": "getHashCorrected",
      "outputs": [
        {
          "internalType": "bytes32",
          "name": "",
          "type": "bytes32"
        }
      ],
      "stateMutability": "pure",
      "type": "function"
    },
    {
      "inputs": [
        {
          "internalType": "address",
          "name": "sender",
          "type": "address"
        },
        {
          "internalType": "uint256",
          "name": "amount",
          "type": "uint256"
        },
        {
          "internalType": "address",
          "name": "recipient",
          "type": "address"
        },
        {
          "internalType": "address",
          "name": "tokenContract",
          "type": "address"
        },
        {
          "internalType": "bytes",
          "name": "signature",
          "type": "bytes"
        }
      ],
      "name": "transfer",
      "outputs": [],
      "stateMutability": "nonpayable",
      "type": "function"
    },
    {
      "inputs": [
        {
          "internalType": "address",
          "name": "sender",
          "type": "address"
        },
        {
          "internalType": "uint256",
          "name": "amount",
          "type": "uint256"
        },
        {
          "internalType": "address",
          "name": "recipient",
          "type": "address"
        },
        {
          "internalType": "address",
          "name": "tokenContract",
          "type": "address"
        },
        {
          "internalType": "uint256",
          "name": "nonce",
          "type": "uint256"
        },
        {
          "internalType": "bytes",
          "name": "signature",
          "type": "bytes"
        }
      ],
      "name": "transferCorrected",
      "outputs": [],
      "stateMutability": "nonpayable",
      "type": "function"
    }
  ],
  "bytecode": "0x608060405234801561001057600080fd5b50611224806100206000396000f3fe608060405234801561001057600080fd5b506004361061004c5760003560e01c80630b758d00146100515780632d212fbd1461006d5780636a023b601461009d578063aad14756146100cd575b600080fd5b61006b600480360381019061006691906109b5565b6100e9565b005b61008760048036038101906100829190610a5e565b6102e7565b6040516100949190610af2565b60405180910390f35b6100b760048036038101906100b29190610b0d565b610323565b6040516100c49190610af2565b60405180910390f35b6100e760048036038101906100e29190610b74565b61035c565b005b60006100f887878787876102e7565b90506000610105826104cd565b905060008082815260200190815260200160002060009054906101000a900460ff1615610167576040517f08c379a000000000000000000000000000000000000000000000000000000000815260040161015e90610c68565b60405180910390fd5b600061017c84836104fd90919063ffffffff16565b90508873ffffffffffffffffffffffffffffffffffffffff168173ffffffffffffffffffffffffffffffffffffffff16146101ec576040517f08c379a00000000000000000000000000000000000000000000000000000000081526004016101e390610cfa565b60405180910390fd5b600160008084815260200190815260200160002060006101000a81548160ff02191690831515021790555060008673ffffffffffffffffffffffffffffffffffffffff166323b872dd8b8a8c6040518463ffffffff1660e01b815260040161025693929190610d38565b6020604051808303816000875af1158015610275573d6000803e3d6000fd5b505050506040513d601f19601f820116820180604052508101906102999190610da7565b9050806102db576040517f08c379a00000000000000000000000000000000000000000000000000000000081526004016102d290610e20565b60405180910390fd5b50505050505050505050565b60008585858585604051602001610302959493929190610ea9565b60405160208183030381529060405280519060200120905095945050505050565b60008484848460405160200161033c9493929190610f08565b604051602081830303815290604052805190602001209050949350505050565b600061036a86868686610323565b90506000610377826104cd565b9050600061038e84836104fd90919063ffffffff16565b90508773ffffffffffffffffffffffffffffffffffffffff168173ffffffffffffffffffffffffffffffffffffffff16146103fe576040517f08c379a00000000000000000000000000000000000000000000000000000000081526004016103f590610cfa565b60405180910390fd5b60008573ffffffffffffffffffffffffffffffffffffffff166323b872dd8a898b6040518463ffffffff1660e01b815260040161043d93929190610d38565b6020604051808303816000875af115801561045c573d6000803e3d6000fd5b505050506040513d601f19601f820116820180604052508101906104809190610da7565b9050806104c2576040517f08c379a00000000000000000000000000000000000000000000000000000000081526004016104b990610e20565b60405180910390fd5b505050505050505050565b6000816040516020016104e09190610fce565b604051602081830303815290604052805190602001209050919050565b600080600061050c8585610524565b9150915061051981610576565b819250505092915050565b6000806041835114156105665760008060006020860151925060408601519150606086015160001a905061055a878285856106e4565b9450945050505061056f565b60006002915091505b9250929050565b6000600481111561058a57610589610ff4565b5b81600481111561059d5761059c610ff4565b5b14156105a8576106e1565b600160048111156105bc576105bb610ff4565b5b8160048111156105cf576105ce610ff4565b5b1415610610576040517f08c379a00000000000000000000000000000000000000000000000000000000081526004016106079061106f565b60405180910390fd5b6002600481111561062457610623610ff4565b5b81600481111561063757610636610ff4565b5b1415610678576040517f08c379a000000000000000000000000000000000000000000000000000000000815260040161066f906110db565b60405180910390fd5b6003600481111561068c5761068b610ff4565b5b81600481111561069f5761069e610ff4565b5b14156106e0576040517f08c379a00000000000000000000000000000000000000000000000000000000081526004016106d79061116d565b60405180910390fd5b5b50565b6000807f7fffffffffffffffffffffffffffffff5d576e7357a4501ddfe92f46681b20a08360001c111561071f5760006003915091506107be565b60006001878787876040516000815260200160405260405161074494939291906111a9565b6020604051602081039080840390855afa158015610766573d6000803e3d6000fd5b505050602060405103519050600073ffffffffffffffffffffffffffffffffffffffff168173ffffffffffffffffffffffffffffffffffffffff1614156107b5576000600192509250506107be565b80600092509250505b94509492505050565b6000604051905090565b600080fd5b600080fd5b600073ffffffffffffffffffffffffffffffffffffffff82169050919050565b6000610806826107db565b9050919050565b610816816107fb565b811461082157600080fd5b50565b6000813590506108338161080d565b92915050565b6000819050919050565b61084c81610839565b811461085757600080fd5b50565b60008135905061086981610843565b92915050565b600080fd5b600080fd5b6000601f19601f8301169050919050565b7f4e487b7100000000000000000000000000000000000000000000000000000000600052604160045260246000fd5b6108c282610879565b810181811067ffffffffffffffff821117156108e1576108e061088a565b5b80604052505050565b60006108f46107c7565b905061090082826108b9565b919050565b600067ffffffffffffffff8211156109205761091f61088a565b5b61092982610879565b9050602081019050919050565b82818337600083830152505050565b600061095861095384610905565b6108ea565b90508281526020810184848401111561097457610973610874565b5b61097f848285610936565b509392505050565b600082601f83011261099c5761099b61086f565b5b81356109ac848260208601610945565b91505092915050565b60008060008060008060c087890312156109d2576109d16107d1565b5b60006109e089828a01610824565b96505060206109f189828a0161085a565b9550506040610a0289828a01610824565b9450506060610a1389828a01610824565b9350506080610a2489828a0161085a565b92505060a087013567ffffffffffffffff811115610a4557610a446107d6565b5b610a5189828a01610987565b9150509295509295509295565b600080600080600060a08688031215610a7a57610a796107d1565b5b6000610a8888828901610824565b9550506020610a998882890161085a565b9450506040610aaa88828901610824565b9350506060610abb88828901610824565b9250506080610acc8882890161085a565b9150509295509295909350565b6000819050919050565b610aec81610ad9565b82525050565b6000602082019050610b076000830184610ae3565b92915050565b60008060008060808587031215610b2757610b266107d1565b5b6000610b3587828801610824565b9450506020610b468782880161085a565b9350506040610b5787828801610824565b9250506060610b6887828801610824565b91505092959194509250565b600080600080600060a08688031215610b9057610b8f6107d1565b5b6000610b9e88828901610824565b9550506020610baf8882890161085a565b9450506040610bc088828901610824565b9350506060610bd188828901610824565b925050608086013567ffffffffffffffff811115610bf257610bf16107d6565b5b610bfe88828901610987565b9150509295509295909350565b600082825260208201905092915050565b7f416c726561647920657865637574656421000000000000000000000000000000600082015250565b6000610c52601183610c0b565b9150610c5d82610c1c565b602082019050919050565b60006020820190508181036000830152610c8181610c45565b9050919050565b7f5369676e617475726520646f6573206e6f7420636f6d652066726f6d2073656e60008201527f6465720000000000000000000000000000000000000000000000000000000000602082015250565b6000610ce4602383610c0b565b9150610cef82610c88565b604082019050919050565b60006020820190508181036000830152610d1381610cd7565b9050919050565b610d23816107fb565b82525050565b610d3281610839565b82525050565b6000606082019050610d4d6000830186610d1a565b610d5a6020830185610d1a565b610d676040830184610d29565b949350505050565b60008115159050919050565b610d8481610d6f565b8114610d8f57600080fd5b50565b600081519050610da181610d7b565b92915050565b600060208284031215610dbd57610dbc6107d1565b5b6000610dcb84828501610d92565b91505092915050565b7f5472616e73666572206661696c65640000000000000000000000000000000000600082015250565b6000610e0a600f83610c0b565b9150610e1582610dd4565b602082019050919050565b60006020820190508181036000830152610e3981610dfd565b9050919050565b60008160601b9050919050565b6000610e5882610e40565b9050919050565b6000610e6a82610e4d565b9050919050565b610e82610e7d826107fb565b610e5f565b82525050565b6000819050919050565b610ea3610e9e82610839565b610e88565b82525050565b6000610eb58288610e71565b601482019150610ec58287610e92565b602082019150610ed58286610e71565b601482019150610ee58285610e71565b601482019150610ef58284610e92565b6020820191508190509695505050505050565b6000610f148287610e71565b601482019150610f248286610e92565b602082019150610f348285610e71565b601482019150610f448284610e71565b60148201915081905095945050505050565b600081905092915050565b7f19457468657265756d205369676e6564204d6573736167653a0a333200000000600082015250565b6000610f97601c83610f56565b9150610fa282610f61565b601c82019050919050565b6000819050919050565b610fc8610fc382610ad9565b610fad565b82525050565b6000610fd982610f8a565b9150610fe58284610fb7565b60208201915081905092915050565b7f4e487b7100000000000000000000000000000000000000000000000000000000600052602160045260246000fd5b7f45434453413a20696e76616c6964207369676e61747572650000000000000000600082015250565b6000611059601883610c0b565b915061106482611023565b602082019050919050565b600060208201905081810360008301526110888161104c565b9050919050565b7f45434453413a20696e76616c6964207369676e6174757265206c656e67746800600082015250565b60006110c5601f83610c0b565b91506110d08261108f565b602082019050919050565b600060208201905081810360008301526110f4816110b8565b9050919050565b7f45434453413a20696e76616c6964207369676e6174757265202773272076616c60008201527f7565000000000000000000000000000000000000000000000000000000000000602082015250565b6000611157602283610c0b565b9150611162826110fb565b604082019050919050565b600060208201905081810360008301526111868161114a565b9050919050565b600060ff82169050919050565b6111a38161118d565b82525050565b60006080820190506111be6000830187610ae3565b6111cb602083018661119a565b6111d86040830185610ae3565b6111e56060830184610ae3565b9594505050505056fea2646970667358221220dd7efd12346f5593572c51ecc1b8c86cedce95f2104efdcfefba4cbf1d7e931864736f6c634300080a0033",
  "linkReferences": {},
  "deployedLinkReferences": {}
}