{
  "_format": "hh-sol-artifact-1",
  "contractName": "MyBoysDevs",
  "sourceName": "contracts/MyBoysDevs.sol",
  "abi": [
    {
      "inputs": [
        {
          "internalType": "string",
          "name": "baseURI",
          "type": "string"
        },
        {
          "internalType": "address",
          "name": "whitelistContract",
          "type": "address"
        }
      ],
      "stateMutability": "nonpayable",
      "type": "constructor"
    },
    {
      "anonymous": false,
      "inputs": [
        {
          "indexed": true,
          "internalType": "address",
          "name": "owner",
          "type": "address"
        },
        {
          "indexed": true,
          "internalType": "address",
          "name": "approved",
          "type": "address"
        },
        {
          "indexed": true,
          "internalType": "uint256",
          "name": "tokenId",
          "type": "uint256"
        }
      ],
      "name": "Approval",
      "type": "event"
    },
    {
      "anonymous": false,
      "inputs": [
        {
          "indexed": true,
          "internalType": "address",
          "name": "owner",
          "type": "address"
        },
        {
          "indexed": true,
          "internalType": "address",
          "name": "operator",
          "type": "address"
        },
        {
          "indexed": false,
          "internalType": "bool",
          "name": "approved",
          "type": "bool"
        }
      ],
      "name": "ApprovalForAll",
      "type": "event"
    },
    {
      "anonymous": false,
      "inputs": [
        {
          "indexed": true,
          "internalType": "address",
          "name": "previousOwner",
          "type": "address"
        },
        {
          "indexed": true,
          "internalType": "address",
          "name": "newOwner",
          "type": "address"
        }
      ],
      "name": "OwnershipTransferred",
      "type": "event"
    },
    {
      "anonymous": false,
      "inputs": [
        {
          "indexed": true,
          "internalType": "address",
          "name": "from",
          "type": "address"
        },
        {
          "indexed": true,
          "internalType": "address",
          "name": "to",
          "type": "address"
        },
        {
          "indexed": true,
          "internalType": "uint256",
          "name": "tokenId",
          "type": "uint256"
        }
      ],
      "name": "Transfer",
      "type": "event"
    },
    {
      "stateMutability": "payable",
      "type": "fallback"
    },
    {
      "inputs": [],
      "name": "_paused",
      "outputs": [
        {
          "internalType": "bool",
          "name": "",
          "type": "bool"
        }
      ],
      "stateMutability": "view",
      "type": "function"
    },
    {
      "inputs": [],
      "name": "_price",
      "outputs": [
        {
          "internalType": "uint256",
          "name": "",
          "type": "uint256"
        }
      ],
      "stateMutability": "view",
      "type": "function"
    },
    {
      "inputs": [
        {
          "internalType": "address",
          "name": "to",
          "type": "address"
        },
        {
          "internalType": "uint256",
          "name": "tokenId",
          "type": "uint256"
        }
      ],
      "name": "approve",
      "outputs": [],
      "stateMutability": "nonpayable",
      "type": "function"
    },
    {
      "inputs": [
        {
          "internalType": "address",
          "name": "owner",
          "type": "address"
        }
      ],
      "name": "balanceOf",
      "outputs": [
        {
          "internalType": "uint256",
          "name": "",
          "type": "uint256"
        }
      ],
      "stateMutability": "view",
      "type": "function"
    },
    {
      "inputs": [
        {
          "internalType": "uint256",
          "name": "tokenId",
          "type": "uint256"
        }
      ],
      "name": "getApproved",
      "outputs": [
        {
          "internalType": "address",
          "name": "",
          "type": "address"
        }
      ],
      "stateMutability": "view",
      "type": "function"
    },
    {
      "inputs": [
        {
          "internalType": "address",
          "name": "owner",
          "type": "address"
        },
        {
          "internalType": "address",
          "name": "operator",
          "type": "address"
        }
      ],
      "name": "isApprovedForAll",
      "outputs": [
        {
          "internalType": "bool",
          "name": "",
          "type": "bool"
        }
      ],
      "stateMutability": "view",
      "type": "function"
    },
    {
      "inputs": [],
      "name": "maxTokenIds",
      "outputs": [
        {
          "internalType": "uint256",
          "name": "",
          "type": "uint256"
        }
      ],
      "stateMutability": "view",
      "type": "function"
    },
    {
      "inputs": [],
      "name": "mint",
      "outputs": [],
      "stateMutability": "payable",
      "type": "function"
    },
    {
      "inputs": [],
      "name": "name",
      "outputs": [
        {
          "internalType": "string",
          "name": "",
          "type": "string"
        }
      ],
      "stateMutability": "view",
      "type": "function"
    },
    {
      "inputs": [],
      "name": "owner",
      "outputs": [
        {
          "internalType": "address",
          "name": "",
          "type": "address"
        }
      ],
      "stateMutability": "view",
      "type": "function"
    },
    {
      "inputs": [
        {
          "internalType": "uint256",
          "name": "tokenId",
          "type": "uint256"
        }
      ],
      "name": "ownerOf",
      "outputs": [
        {
          "internalType": "address",
          "name": "",
          "type": "address"
        }
      ],
      "stateMutability": "view",
      "type": "function"
    },
    {
      "inputs": [],
      "name": "presaleEnded",
      "outputs": [
        {
          "internalType": "uint256",
          "name": "",
          "type": "uint256"
        }
      ],
      "stateMutability": "view",
      "type": "function"
    },
    {
      "inputs": [],
      "name": "presaleMint",
      "outputs": [],
      "stateMutability": "payable",
      "type": "function"
    },
    {
      "inputs": [],
      "name": "presaleStarted",
      "outputs": [
        {
          "internalType": "bool",
          "name": "",
          "type": "bool"
        }
      ],
      "stateMutability": "view",
      "type": "function"
    },
    {
      "inputs": [],
      "name": "renounceOwnership",
      "outputs": [],
      "stateMutability": "nonpayable",
      "type": "function"
    },
    {
      "inputs": [
        {
          "internalType": "address",
          "name": "from",
          "type": "address"
        },
        {
          "internalType": "address",
          "name": "to",
          "type": "address"
        },
        {
          "internalType": "uint256",
          "name": "tokenId",
          "type": "uint256"
        }
      ],
      "name": "safeTransferFrom",
      "outputs": [],
      "stateMutability": "nonpayable",
      "type": "function"
    },
    {
      "inputs": [
        {
          "internalType": "address",
          "name": "from",
          "type": "address"
        },
        {
          "internalType": "address",
          "name": "to",
          "type": "address"
        },
        {
          "internalType": "uint256",
          "name": "tokenId",
          "type": "uint256"
        },
        {
          "internalType": "bytes",
          "name": "data",
          "type": "bytes"
        }
      ],
      "name": "safeTransferFrom",
      "outputs": [],
      "stateMutability": "nonpayable",
      "type": "function"
    },
    {
      "inputs": [
        {
          "internalType": "address",
          "name": "operator",
          "type": "address"
        },
        {
          "internalType": "bool",
          "name": "approved",
          "type": "bool"
        }
      ],
      "name": "setApprovalForAll",
      "outputs": [],
      "stateMutability": "nonpayable",
      "type": "function"
    },
    {
      "inputs": [
        {
          "internalType": "bool",
          "name": "val",
          "type": "bool"
        }
      ],
      "name": "setPaused",
      "outputs": [],
      "stateMutability": "nonpayable",
      "type": "function"
    },
    {
      "inputs": [],
      "name": "startPresale",
      "outputs": [],
      "stateMutability": "nonpayable",
      "type": "function"
    },
    {
      "inputs": [
        {
          "internalType": "bytes4",
          "name": "interfaceId",
          "type": "bytes4"
        }
      ],
      "name": "supportsInterface",
      "outputs": [
        {
          "internalType": "bool",
          "name": "",
          "type": "bool"
        }
      ],
      "stateMutability": "view",
      "type": "function"
    },
    {
      "inputs": [],
      "name": "symbol",
      "outputs": [
        {
          "internalType": "string",
          "name": "",
          "type": "string"
        }
      ],
      "stateMutability": "view",
      "type": "function"
    },
    {
      "inputs": [
        {
          "internalType": "uint256",
          "name": "index",
          "type": "uint256"
        }
      ],
      "name": "tokenByIndex",
      "outputs": [
        {
          "internalType": "uint256",
          "name": "",
          "type": "uint256"
        }
      ],
      "stateMutability": "view",
      "type": "function"
    },
    {
      "inputs": [],
      "name": "tokenIds",
      "outputs": [
        {
          "internalType": "uint256",
          "name": "",
          "type": "uint256"
        }
      ],
      "stateMutability": "view",
      "type": "function"
    },
    {
      "inputs": [
        {
          "internalType": "address",
          "name": "owner",
          "type": "address"
        },
        {
          "internalType": "uint256",
          "name": "index",
          "type": "uint256"
        }
      ],
      "name": "tokenOfOwnerByIndex",
      "outputs": [
        {
          "internalType": "uint256",
          "name": "",
          "type": "uint256"
        }
      ],
      "stateMutability": "view",
      "type": "function"
    },
    {
      "inputs": [
        {
          "internalType": "uint256",
          "name": "tokenId",
          "type": "uint256"
        }
      ],
      "name": "tokenURI",
      "outputs": [
        {
          "internalType": "string",
          "name": "",
          "type": "string"
        }
      ],
      "stateMutability": "view",
      "type": "function"
    },
    {
      "inputs": [],
      "name": "totalSupply",
      "outputs": [
        {
          "internalType": "uint256",
          "name": "",
          "type": "uint256"
        }
      ],
      "stateMutability": "view",
      "type": "function"
    },
    {
      "inputs": [
        {
          "internalType": "address",
          "name": "from",
          "type": "address"
        },
        {
          "internalType": "address",
          "name": "to",
          "type": "address"
        },
        {
          "internalType": "uint256",
          "name": "tokenId",
          "type": "uint256"
        }
      ],
      "name": "transferFrom",
      "outputs": [],
      "stateMutability": "nonpayable",
      "type": "function"
    },
    {
      "inputs": [
        {
          "internalType": "address",
          "name": "newOwner",
          "type": "address"
        }
      ],
      "name": "transferOwnership",
      "outputs": [],
      "stateMutability": "nonpayable",
      "type": "function"
    },
    {
      "inputs": [],
      "name": "withdraw",
      "outputs": [],
      "stateMutability": "nonpayable",
      "type": "function"
    },
    {
      "stateMutability": "payable",
      "type": "receive"
    }
  ],
  "bytecode": "0x6080604052662386f26fc10000600c556014600e553480156200002157600080fd5b5060405162004569380380620045698339818101604052810190620000479190620004e9565b6040518060400160405280600c81526020017f4d7920426f7973204465767300000000000000000000000000000000000000008152506040518060400160405280600381526020017f4d424400000000000000000000000000000000000000000000000000000000008152508160009080519060200190620000cb92919062000237565b508060019080519060200190620000e492919062000237565b50505062000107620000fb6200016960201b60201c565b6200017160201b60201c565b81600b90805190602001906200011f92919062000237565b5080601060006101000a81548173ffffffffffffffffffffffffffffffffffffffff021916908373ffffffffffffffffffffffffffffffffffffffff1602179055505050620005b4565b600033905090565b6000600a60009054906101000a900473ffffffffffffffffffffffffffffffffffffffff16905081600a60006101000a81548173ffffffffffffffffffffffffffffffffffffffff021916908373ffffffffffffffffffffffffffffffffffffffff1602179055508173ffffffffffffffffffffffffffffffffffffffff168173ffffffffffffffffffffffffffffffffffffffff167f8be0079c531659141344cd1fd0a4f28419497f9722a3daafe3b4186f6b6457e060405160405180910390a35050565b82805462000245906200057e565b90600052602060002090601f016020900481019282620002695760008555620002b5565b82601f106200028457805160ff1916838001178555620002b5565b82800160010185558215620002b5579182015b82811115620002b457825182559160200191906001019062000297565b5b509050620002c49190620002c8565b5090565b5b80821115620002e3576000816000905550600101620002c9565b5090565b6000604051905090565b600080fd5b600080fd5b600080fd5b600080fd5b6000601f19601f8301169050919050565b7f4e487b7100000000000000000000000000000000000000000000000000000000600052604160045260246000fd5b620003508262000305565b810181811067ffffffffffffffff8211171562000372576200037162000316565b5b80604052505050565b600062000387620002e7565b905062000395828262000345565b919050565b600067ffffffffffffffff821115620003b857620003b762000316565b5b620003c38262000305565b9050602081019050919050565b60005b83811015620003f0578082015181840152602081019050620003d3565b8381111562000400576000848401525b50505050565b60006200041d62000417846200039a565b6200037b565b9050828152602081018484840111156200043c576200043b62000300565b5b62000449848285620003d0565b509392505050565b600082601f830112620004695762000468620002fb565b5b81516200047b84826020860162000406565b91505092915050565b600073ffffffffffffffffffffffffffffffffffffffff82169050919050565b6000620004b18262000484565b9050919050565b620004c381620004a4565b8114620004cf57600080fd5b50565b600081519050620004e381620004b8565b92915050565b60008060408385031215620005035762000502620002f1565b5b600083015167ffffffffffffffff811115620005245762000523620002f6565b5b620005328582860162000451565b92505060206200054585828601620004d2565b9150509250929050565b7f4e487b7100000000000000000000000000000000000000000000000000000000600052602260045260246000fd5b600060028204905060018216806200059757607f821691505b60208210811415620005ae57620005ad6200054f565b5b50919050565b613fa580620005c46000396000f3fe6080604052600436106101d15760003560e01c80634f6ccce7116100f75780638da5cb5b11610095578063c87b56dd11610064578063c87b56dd1461061a578063e580b2b014610657578063e985e9c514610682578063f2fde38b146106bf576101d8565b80638da5cb5b1461057257806395d89b411461059d578063a22cb465146105c8578063b88d4fde146105f1576101d8565b80636352211e116100d15780636352211e146104b657806370a08231146104f3578063714cff5614610530578063715018a61461055b576101d8565b80634f6ccce71461044457806359533d6c146104815780635f7696211461048b576101d8565b806316c38b3c1161016f57806323b872dd1161013e57806323b872dd1461039e5780632f745c59146103c75780633ccfd60b1461040457806342842e0e1461041b576101d8565b806316c38b3c146102f457806316c61ccc1461031d57806318160ddd14610348578063235b6ea114610373576101d8565b806306fdde03116101ab57806306fdde0314610259578063081812fc14610284578063095ea7b3146102c15780631249c58b146102ea576101d8565b806301ffc9a7146101da57806304549d6f1461021757806304c98b2b14610242576101d8565b366101d857005b005b3480156101e657600080fd5b5061020160048036038101906101fc9190612a6b565b6106e8565b60405161020e9190612ab3565b60405180910390f35b34801561022357600080fd5b5061022c610762565b6040516102399190612ab3565b60405180910390f35b34801561024e57600080fd5b50610257610775565b005b34801561026557600080fd5b5061026e6107ae565b60405161027b9190612b67565b60405180910390f35b34801561029057600080fd5b506102ab60048036038101906102a69190612bbf565b610840565b6040516102b89190612c2d565b60405180910390f35b3480156102cd57600080fd5b506102e860048036038101906102e39190612c74565b610886565b005b6102f261099e565b005b34801561030057600080fd5b5061031b60048036038101906103169190612ce0565b610afe565b005b34801561032957600080fd5b50610332610b23565b60405161033f9190612ab3565b60405180910390f35b34801561035457600080fd5b5061035d610b36565b60405161036a9190612d1c565b60405180910390f35b34801561037f57600080fd5b50610388610b43565b6040516103959190612d1c565b60405180910390f35b3480156103aa57600080fd5b506103c560048036038101906103c09190612d37565b610b49565b005b3480156103d357600080fd5b506103ee60048036038101906103e99190612c74565b610ba9565b6040516103fb9190612d1c565b60405180910390f35b34801561041057600080fd5b50610419610c4e565b005b34801561042757600080fd5b50610442600480360381019061043d9190612d37565b610d18565b005b34801561045057600080fd5b5061046b60048036038101906104669190612bbf565b610d38565b6040516104789190612d1c565b60405180910390f35b610489610da9565b005b34801561049757600080fd5b506104a0610fe3565b6040516104ad9190612d1c565b60405180910390f35b3480156104c257600080fd5b506104dd60048036038101906104d89190612bbf565b610fe9565b6040516104ea9190612c2d565b60405180910390f35b3480156104ff57600080fd5b5061051a60048036038101906105159190612d8a565b611070565b6040516105279190612d1c565b60405180910390f35b34801561053c57600080fd5b50610545611128565b6040516105529190612d1c565b60405180910390f35b34801561056757600080fd5b5061057061112e565b005b34801561057e57600080fd5b50610587611142565b6040516105949190612c2d565b60405180910390f35b3480156105a957600080fd5b506105b261116c565b6040516105bf9190612b67565b60405180910390f35b3480156105d457600080fd5b506105ef60048036038101906105ea9190612db7565b6111fe565b005b3480156105fd57600080fd5b5061061860048036038101906106139190612f2c565b611214565b005b34801561062657600080fd5b50610641600480360381019061063c9190612bbf565b611276565b60405161064e9190612b67565b60405180910390f35b34801561066357600080fd5b5061066c6112de565b6040516106799190612d1c565b60405180910390f35b34801561068e57600080fd5b506106a960048036038101906106a49190612faf565b6112e4565b6040516106b69190612ab3565b60405180910390f35b3480156106cb57600080fd5b506106e660048036038101906106e19190612d8a565b611378565b005b60007f780e9d63000000000000000000000000000000000000000000000000000000007bffffffffffffffffffffffffffffffffffffffffffffffffffffffff1916827bffffffffffffffffffffffffffffffffffffffffffffffffffffffff1916148061075b575061075a826113fc565b5b9050919050565b601060149054906101000a900460ff1681565b61077d6114de565b6001601060146101000a81548160ff02191690831515021790555061012c426107a6919061301e565b601181905550565b6060600080546107bd906130a3565b80601f01602080910402602001604051908101604052809291908181526020018280546107e9906130a3565b80156108365780601f1061080b57610100808354040283529160200191610836565b820191906000526020600020905b81548152906001019060200180831161081957829003601f168201915b5050505050905090565b600061084b8261155c565b6004600083815260200190815260200160002060009054906101000a900473ffffffffffffffffffffffffffffffffffffffff169050919050565b600061089182610fe9565b90508073ffffffffffffffffffffffffffffffffffffffff168373ffffffffffffffffffffffffffffffffffffffff161415610902576040517f08c379a00000000000000000000000000000000000000000000000000000000081526004016108f990613147565b60405180910390fd5b8073ffffffffffffffffffffffffffffffffffffffff166109216115a7565b73ffffffffffffffffffffffffffffffffffffffff161480610950575061094f8161094a6115a7565b6112e4565b5b61098f576040517f08c379a0000000000000000000000000000000000000000000000000000000008152600401610986906131d9565b60405180910390fd5b61099983836115af565b505050565b600d60009054906101000a900460ff16156109ee576040517f08c379a00000000000000000000000000000000000000000000000000000000081526004016109e590613245565b60405180910390fd5b601060149054906101000a900460ff168015610a0c57506011544210155b610a4b576040517f08c379a0000000000000000000000000000000000000000000000000000000008152600401610a42906132b1565b60405180910390fd5b600e54600f5410610a91576040517f08c379a0000000000000000000000000000000000000000000000000000000008152600401610a8890613343565b60405180910390fd5b600c54341015610ad6576040517f08c379a0000000000000000000000000000000000000000000000000000000008152600401610acd906133af565b60405180910390fd5b6001600f6000828254610ae9919061301e565b92505081905550610afc33600f54611668565b565b610b066114de565b80600d60006101000a81548160ff02191690831515021790555050565b600d60009054906101000a900460ff1681565b6000600880549050905090565b600c5481565b610b5a610b546115a7565b82611686565b610b99576040517f08c379a0000000000000000000000000000000000000000000000000000000008152600401610b9090613441565b60405180910390fd5b610ba483838361171b565b505050565b6000610bb483611070565b8210610bf5576040517f08c379a0000000000000000000000000000000000000000000000000000000008152600401610bec906134d3565b60405180910390fd5b600660008473ffffffffffffffffffffffffffffffffffffffff1673ffffffffffffffffffffffffffffffffffffffff168152602001908152602001600020600083815260200190815260200160002054905092915050565b610c566114de565b6000610c60611142565b9050600047905060008273ffffffffffffffffffffffffffffffffffffffff1682604051610c8d90613524565b60006040518083038185875af1925050503d8060008114610cca576040519150601f19603f3d011682016040523d82523d6000602084013e610ccf565b606091505b5050905080610d13576040517f08c379a0000000000000000000000000000000000000000000000000000000008152600401610d0a90613585565b60405180910390fd5b505050565b610d3383838360405180602001604052806000815250611214565b505050565b6000610d42610b36565b8210610d83576040517f08c379a0000000000000000000000000000000000000000000000000000000008152600401610d7a90613617565b60405180910390fd5b60088281548110610d9757610d96613637565b5b90600052602060002001549050919050565b600d60009054906101000a900460ff1615610df9576040517f08c379a0000000000000000000000000000000000000000000000000000000008152600401610df090613245565b60405180910390fd5b601060149054906101000a900460ff168015610e16575060115442105b610e55576040517f08c379a0000000000000000000000000000000000000000000000000000000008152600401610e4c906136b2565b60405180910390fd5b601060009054906101000a900473ffffffffffffffffffffffffffffffffffffffff1673ffffffffffffffffffffffffffffffffffffffff166306c933d8336040518263ffffffff1660e01b8152600401610eb09190612c2d565b602060405180830381865afa158015610ecd573d6000803e3d6000fd5b505050506040513d601f19601f82011682018060405250810190610ef191906136e7565b610f30576040517f08c379a0000000000000000000000000000000000000000000000000000000008152600401610f2790613760565b60405180910390fd5b600e54600f5410610f76576040517f08c379a0000000000000000000000000000000000000000000000000000000008152600401610f6d906137f2565b60405180910390fd5b600c54341015610fbb576040517f08c379a0000000000000000000000000000000000000000000000000000000008152600401610fb2906133af565b60405180910390fd5b6001600f6000828254610fce919061301e565b92505081905550610fe133600f54611668565b565b600e5481565b600080610ff583611a15565b9050600073ffffffffffffffffffffffffffffffffffffffff168173ffffffffffffffffffffffffffffffffffffffff161415611067576040517f08c379a000000000000000000000000000000000000000000000000000000000815260040161105e9061385e565b60405180910390fd5b80915050919050565b60008073ffffffffffffffffffffffffffffffffffffffff168273ffffffffffffffffffffffffffffffffffffffff1614156110e1576040517f08c379a00000000000000000000000000000000000000000000000000000000081526004016110d8906138f0565b60405180910390fd5b600360008373ffffffffffffffffffffffffffffffffffffffff1673ffffffffffffffffffffffffffffffffffffffff168152602001908152602001600020549050919050565b600f5481565b6111366114de565b6111406000611a52565b565b6000600a60009054906101000a900473ffffffffffffffffffffffffffffffffffffffff16905090565b60606001805461117b906130a3565b80601f01602080910402602001604051908101604052809291908181526020018280546111a7906130a3565b80156111f45780601f106111c9576101008083540402835291602001916111f4565b820191906000526020600020905b8154815290600101906020018083116111d757829003601f168201915b5050505050905090565b6112106112096115a7565b8383611b18565b5050565b61122561121f6115a7565b83611686565b611264576040517f08c379a000000000000000000000000000000000000000000000000000000000815260040161125b90613441565b60405180910390fd5b61127084848484611c85565b50505050565b60606112818261155c565b600061128b611ce1565b905060008151116112ab57604051806020016040528060008152506112d6565b806112b584611d73565b6040516020016112c692919061394c565b6040516020818303038152906040525b915050919050565b60115481565b6000600560008473ffffffffffffffffffffffffffffffffffffffff1673ffffffffffffffffffffffffffffffffffffffff16815260200190815260200160002060008373ffffffffffffffffffffffffffffffffffffffff1673ffffffffffffffffffffffffffffffffffffffff16815260200190815260200160002060009054906101000a900460ff16905092915050565b6113806114de565b600073ffffffffffffffffffffffffffffffffffffffff168173ffffffffffffffffffffffffffffffffffffffff1614156113f0576040517f08c379a00000000000000000000000000000000000000000000000000000000081526004016113e7906139e2565b60405180910390fd5b6113f981611a52565b50565b60007f80ac58cd000000000000000000000000000000000000000000000000000000007bffffffffffffffffffffffffffffffffffffffffffffffffffffffff1916827bffffffffffffffffffffffffffffffffffffffffffffffffffffffff191614806114c757507f5b5e139f000000000000000000000000000000000000000000000000000000007bffffffffffffffffffffffffffffffffffffffffffffffffffffffff1916827bffffffffffffffffffffffffffffffffffffffffffffffffffffffff1916145b806114d757506114d682611e4b565b5b9050919050565b6114e66115a7565b73ffffffffffffffffffffffffffffffffffffffff16611504611142565b73ffffffffffffffffffffffffffffffffffffffff161461155a576040517f08c379a000000000000000000000000000000000000000000000000000000000815260040161155190613a4e565b60405180910390fd5b565b61156581611eb5565b6115a4576040517f08c379a000000000000000000000000000000000000000000000000000000000815260040161159b9061385e565b60405180910390fd5b50565b600033905090565b816004600083815260200190815260200160002060006101000a81548173ffffffffffffffffffffffffffffffffffffffff021916908373ffffffffffffffffffffffffffffffffffffffff160217905550808273ffffffffffffffffffffffffffffffffffffffff1661162283610fe9565b73ffffffffffffffffffffffffffffffffffffffff167f8c5be1e5ebec7d5bd14f71427d1e84f3dd0314c0f7b2291e5b200ac8c7c3b92560405160405180910390a45050565b611682828260405180602001604052806000815250611ef6565b5050565b60008061169283610fe9565b90508073ffffffffffffffffffffffffffffffffffffffff168473ffffffffffffffffffffffffffffffffffffffff1614806116d457506116d381856112e4565b5b8061171257508373ffffffffffffffffffffffffffffffffffffffff166116fa84610840565b73ffffffffffffffffffffffffffffffffffffffff16145b91505092915050565b8273ffffffffffffffffffffffffffffffffffffffff1661173b82610fe9565b73ffffffffffffffffffffffffffffffffffffffff1614611791576040517f08c379a000000000000000000000000000000000000000000000000000000000815260040161178890613ae0565b60405180910390fd5b600073ffffffffffffffffffffffffffffffffffffffff168273ffffffffffffffffffffffffffffffffffffffff161415611801576040517f08c379a00000000000000000000000000000000000000000000000000000000081526004016117f890613b72565b60405180910390fd5b61180e8383836001611f51565b8273ffffffffffffffffffffffffffffffffffffffff1661182e82610fe9565b73ffffffffffffffffffffffffffffffffffffffff1614611884576040517f08c379a000000000000000000000000000000000000000000000000000000000815260040161187b90613ae0565b60405180910390fd5b6004600082815260200190815260200160002060006101000a81549073ffffffffffffffffffffffffffffffffffffffff02191690556001600360008573ffffffffffffffffffffffffffffffffffffffff1673ffffffffffffffffffffffffffffffffffffffff168152602001908152602001600020600082825403925050819055506001600360008473ffffffffffffffffffffffffffffffffffffffff1673ffffffffffffffffffffffffffffffffffffffff16815260200190815260200160002060008282540192505081905550816002600083815260200190815260200160002060006101000a81548173ffffffffffffffffffffffffffffffffffffffff021916908373ffffffffffffffffffffffffffffffffffffffff160217905550808273ffffffffffffffffffffffffffffffffffffffff168473ffffffffffffffffffffffffffffffffffffffff167fddf252ad1be2c89b69c2b068fc378daa952ba7f163c4a11628f55a4df523b3ef60405160405180910390a4611a1083838360016120b1565b505050565b60006002600083815260200190815260200160002060009054906101000a900473ffffffffffffffffffffffffffffffffffffffff169050919050565b6000600a60009054906101000a900473ffffffffffffffffffffffffffffffffffffffff16905081600a60006101000a81548173ffffffffffffffffffffffffffffffffffffffff021916908373ffffffffffffffffffffffffffffffffffffffff1602179055508173ffffffffffffffffffffffffffffffffffffffff168173ffffffffffffffffffffffffffffffffffffffff167f8be0079c531659141344cd1fd0a4f28419497f9722a3daafe3b4186f6b6457e060405160405180910390a35050565b8173ffffffffffffffffffffffffffffffffffffffff168373ffffffffffffffffffffffffffffffffffffffff161415611b87576040517f08c379a0000000000000000000000000000000000000000000000000000000008152600401611b7e90613bde565b60405180910390fd5b80600560008573ffffffffffffffffffffffffffffffffffffffff1673ffffffffffffffffffffffffffffffffffffffff16815260200190815260200160002060008473ffffffffffffffffffffffffffffffffffffffff1673ffffffffffffffffffffffffffffffffffffffff16815260200190815260200160002060006101000a81548160ff0219169083151502179055508173ffffffffffffffffffffffffffffffffffffffff168373ffffffffffffffffffffffffffffffffffffffff167f17307eab39ab6107e8899845ad3d59bd9653f200f220920489ca2b5937696c3183604051611c789190612ab3565b60405180910390a3505050565b611c9084848461171b565b611c9c848484846120b7565b611cdb576040517f08c379a0000000000000000000000000000000000000000000000000000000008152600401611cd290613c70565b60405180910390fd5b50505050565b6060600b8054611cf0906130a3565b80601f0160208091040260200160405190810160405280929190818152602001828054611d1c906130a3565b8015611d695780601f10611d3e57610100808354040283529160200191611d69565b820191906000526020600020905b815481529060010190602001808311611d4c57829003601f168201915b5050505050905090565b606060006001611d828461223f565b01905060008167ffffffffffffffff811115611da157611da0612e01565b5b6040519080825280601f01601f191660200182016040528015611dd35781602001600182028036833780820191505090505b509050600082602001820190505b600115611e40578080600190039150507f3031323334353637383961626364656600000000000000000000000000000000600a86061a8153600a8581611e2a57611e29613c90565b5b0494506000851415611e3b57611e40565b611de1565b819350505050919050565b60007f01ffc9a7000000000000000000000000000000000000000000000000000000007bffffffffffffffffffffffffffffffffffffffffffffffffffffffff1916827bffffffffffffffffffffffffffffffffffffffffffffffffffffffff1916149050919050565b60008073ffffffffffffffffffffffffffffffffffffffff16611ed783611a15565b73ffffffffffffffffffffffffffffffffffffffff1614159050919050565b611f008383612392565b611f0d60008484846120b7565b611f4c576040517f08c379a0000000000000000000000000000000000000000000000000000000008152600401611f4390613c70565b60405180910390fd5b505050565b611f5d848484846125b0565b6001811115611fa1576040517f08c379a0000000000000000000000000000000000000000000000000000000008152600401611f9890613d31565b60405180910390fd5b6000829050600073ffffffffffffffffffffffffffffffffffffffff168573ffffffffffffffffffffffffffffffffffffffff161415611fe957611fe4816126d6565b612028565b8373ffffffffffffffffffffffffffffffffffffffff168573ffffffffffffffffffffffffffffffffffffffff161461202757612026858261271f565b5b5b600073ffffffffffffffffffffffffffffffffffffffff168473ffffffffffffffffffffffffffffffffffffffff16141561206b576120668161288c565b6120aa565b8473ffffffffffffffffffffffffffffffffffffffff168473ffffffffffffffffffffffffffffffffffffffff16146120a9576120a8848261295d565b5b5b5050505050565b50505050565b60006120d88473ffffffffffffffffffffffffffffffffffffffff166129dc565b15612232578373ffffffffffffffffffffffffffffffffffffffff1663150b7a026121016115a7565b8786866040518563ffffffff1660e01b81526004016121239493929190613da6565b6020604051808303816000875af192505050801561215f57506040513d601f19601f8201168201806040525081019061215c9190613e07565b60015b6121e2573d806000811461218f576040519150601f19603f3d011682016040523d82523d6000602084013e612194565b606091505b506000815114156121da576040517f08c379a00000000000000000000000000000000000000000000000000000000081526004016121d190613c70565b60405180910390fd5b805181602001fd5b63150b7a0260e01b7bffffffffffffffffffffffffffffffffffffffffffffffffffffffff1916817bffffffffffffffffffffffffffffffffffffffffffffffffffffffff191614915050612237565b600190505b949350505050565b600080600090507a184f03e93ff9f4daa797ed6e38ed64bf6a1f010000000000000000831061229d577a184f03e93ff9f4daa797ed6e38ed64bf6a1f010000000000000000838161229357612292613c90565b5b0492506040810190505b6d04ee2d6d415b85acef810000000083106122da576d04ee2d6d415b85acef810000000083816122d0576122cf613c90565b5b0492506020810190505b662386f26fc10000831061230957662386f26fc1000083816122ff576122fe613c90565b5b0492506010810190505b6305f5e1008310612332576305f5e100838161232857612327613c90565b5b0492506008810190505b612710831061235757612710838161234d5761234c613c90565b5b0492506004810190505b6064831061237a57606483816123705761236f613c90565b5b0492506002810190505b600a8310612389576001810190505b80915050919050565b600073ffffffffffffffffffffffffffffffffffffffff168273ffffffffffffffffffffffffffffffffffffffff161415612402576040517f08c379a00000000000000000000000000000000000000000000000000000000081526004016123f990613e80565b60405180910390fd5b61240b81611eb5565b1561244b576040517f08c379a000000000000000000000000000000000000000000000000000000000815260040161244290613eec565b60405180910390fd5b612459600083836001611f51565b61246281611eb5565b156124a2576040517f08c379a000000000000000000000000000000000000000000000000000000000815260040161249990613eec565b60405180910390fd5b6001600360008473ffffffffffffffffffffffffffffffffffffffff1673ffffffffffffffffffffffffffffffffffffffff16815260200190815260200160002060008282540192505081905550816002600083815260200190815260200160002060006101000a81548173ffffffffffffffffffffffffffffffffffffffff021916908373ffffffffffffffffffffffffffffffffffffffff160217905550808273ffffffffffffffffffffffffffffffffffffffff16600073ffffffffffffffffffffffffffffffffffffffff167fddf252ad1be2c89b69c2b068fc378daa952ba7f163c4a11628f55a4df523b3ef60405160405180910390a46125ac6000838360016120b1565b5050565b60018111156126d057600073ffffffffffffffffffffffffffffffffffffffff168473ffffffffffffffffffffffffffffffffffffffff16146126445780600360008673ffffffffffffffffffffffffffffffffffffffff1673ffffffffffffffffffffffffffffffffffffffff168152602001908152602001600020600082825461263c9190613f0c565b925050819055505b600073ffffffffffffffffffffffffffffffffffffffff168373ffffffffffffffffffffffffffffffffffffffff16146126cf5780600360008573ffffffffffffffffffffffffffffffffffffffff1673ffffffffffffffffffffffffffffffffffffffff16815260200190815260200160002060008282546126c7919061301e565b925050819055505b5b50505050565b6008805490506009600083815260200190815260200160002081905550600881908060018154018082558091505060019003906000526020600020016000909190919091505550565b6000600161272c84611070565b6127369190613f0c565b905060006007600084815260200190815260200160002054905081811461281b576000600660008673ffffffffffffffffffffffffffffffffffffffff1673ffffffffffffffffffffffffffffffffffffffff168152602001908152602001600020600084815260200190815260200160002054905080600660008773ffffffffffffffffffffffffffffffffffffffff1673ffffffffffffffffffffffffffffffffffffffff168152602001908152602001600020600084815260200190815260200160002081905550816007600083815260200190815260200160002081905550505b6007600084815260200190815260200160002060009055600660008573ffffffffffffffffffffffffffffffffffffffff1673ffffffffffffffffffffffffffffffffffffffff16815260200190815260200160002060008381526020019081526020016000206000905550505050565b600060016008805490506128a09190613f0c565b90506000600960008481526020019081526020016000205490506000600883815481106128d0576128cf613637565b5b9060005260206000200154905080600883815481106128f2576128f1613637565b5b90600052602060002001819055508160096000838152602001908152602001600020819055506009600085815260200190815260200160002060009055600880548061294157612940613f40565b5b6001900381819060005260206000200160009055905550505050565b600061296883611070565b905081600660008573ffffffffffffffffffffffffffffffffffffffff1673ffffffffffffffffffffffffffffffffffffffff168152602001908152602001600020600083815260200190815260200160002081905550806007600084815260200190815260200160002081905550505050565b6000808273ffffffffffffffffffffffffffffffffffffffff163b119050919050565b6000604051905090565b600080fd5b600080fd5b60007fffffffff0000000000000000000000000000000000000000000000000000000082169050919050565b612a4881612a13565b8114612a5357600080fd5b50565b600081359050612a6581612a3f565b92915050565b600060208284031215612a8157612a80612a09565b5b6000612a8f84828501612a56565b91505092915050565b60008115159050919050565b612aad81612a98565b82525050565b6000602082019050612ac86000830184612aa4565b92915050565b600081519050919050565b600082825260208201905092915050565b60005b83811015612b08578082015181840152602081019050612aed565b83811115612b17576000848401525b50505050565b6000601f19601f8301169050919050565b6000612b3982612ace565b612b438185612ad9565b9350612b53818560208601612aea565b612b5c81612b1d565b840191505092915050565b60006020820190508181036000830152612b818184612b2e565b905092915050565b6000819050919050565b612b9c81612b89565b8114612ba757600080fd5b50565b600081359050612bb981612b93565b92915050565b600060208284031215612bd557612bd4612a09565b5b6000612be384828501612baa565b91505092915050565b600073ffffffffffffffffffffffffffffffffffffffff82169050919050565b6000612c1782612bec565b9050919050565b612c2781612c0c565b82525050565b6000602082019050612c426000830184612c1e565b92915050565b612c5181612c0c565b8114612c5c57600080fd5b50565b600081359050612c6e81612c48565b92915050565b60008060408385031215612c8b57612c8a612a09565b5b6000612c9985828601612c5f565b9250506020612caa85828601612baa565b9150509250929050565b612cbd81612a98565b8114612cc857600080fd5b50565b600081359050612cda81612cb4565b92915050565b600060208284031215612cf657612cf5612a09565b5b6000612d0484828501612ccb565b91505092915050565b612d1681612b89565b82525050565b6000602082019050612d316000830184612d0d565b92915050565b600080600060608486031215612d5057612d4f612a09565b5b6000612d5e86828701612c5f565b9350506020612d6f86828701612c5f565b9250506040612d8086828701612baa565b9150509250925092565b600060208284031215612da057612d9f612a09565b5b6000612dae84828501612c5f565b91505092915050565b60008060408385031215612dce57612dcd612a09565b5b6000612ddc85828601612c5f565b9250506020612ded85828601612ccb565b9150509250929050565b600080fd5b600080fd5b7f4e487b7100000000000000000000000000000000000000000000000000000000600052604160045260246000fd5b612e3982612b1d565b810181811067ffffffffffffffff82111715612e5857612e57612e01565b5b80604052505050565b6000612e6b6129ff565b9050612e778282612e30565b919050565b600067ffffffffffffffff821115612e9757612e96612e01565b5b612ea082612b1d565b9050602081019050919050565b82818337600083830152505050565b6000612ecf612eca84612e7c565b612e61565b905082815260208101848484011115612eeb57612eea612dfc565b5b612ef6848285612ead565b509392505050565b600082601f830112612f1357612f12612df7565b5b8135612f23848260208601612ebc565b91505092915050565b60008060008060808587031215612f4657612f45612a09565b5b6000612f5487828801612c5f565b9450506020612f6587828801612c5f565b9350506040612f7687828801612baa565b925050606085013567ffffffffffffffff811115612f9757612f96612a0e565b5b612fa387828801612efe565b91505092959194509250565b60008060408385031215612fc657612fc5612a09565b5b6000612fd485828601612c5f565b9250506020612fe585828601612c5f565b9150509250929050565b7f4e487b7100000000000000000000000000000000000000000000000000000000600052601160045260246000fd5b600061302982612b89565b915061303483612b89565b9250827fffffffffffffffffffffffffffffffffffffffffffffffffffffffffffffffff0382111561306957613068612fef565b5b828201905092915050565b7f4e487b7100000000000000000000000000000000000000000000000000000000600052602260045260246000fd5b600060028204905060018216806130bb57607f821691505b602082108114156130cf576130ce613074565b5b50919050565b7f4552433732313a20617070726f76616c20746f2063757272656e74206f776e6560008201527f7200000000000000000000000000000000000000000000000000000000000000602082015250565b6000613131602183612ad9565b915061313c826130d5565b604082019050919050565b6000602082019050818103600083015261316081613124565b9050919050565b7f4552433732313a20617070726f76652063616c6c6572206973206e6f7420746f60008201527f6b656e206f776e6572206f7220617070726f76656420666f7220616c6c000000602082015250565b60006131c3603d83612ad9565b91506131ce82613167565b604082019050919050565b600060208201905081810360008301526131f2816131b6565b9050919050565b7f436f6e74726163742063757272656e746c792070617573656400000000000000600082015250565b600061322f601983612ad9565b915061323a826131f9565b602082019050919050565b6000602082019050818103600083015261325e81613222565b9050919050565b7f50726573616c6520686173206e6f7420656e6465642079657400000000000000600082015250565b600061329b601983612ad9565b91506132a682613265565b602082019050919050565b600060208201905081810360008301526132ca8161328e565b9050919050565b7f457863656564206d6178696d756d204d7920426f79732044657673207375707060008201527f6c79000000000000000000000000000000000000000000000000000000000000602082015250565b600061332d602283612ad9565b9150613338826132d1565b604082019050919050565b6000602082019050818103600083015261335c81613320565b9050919050565b7f45746865722073656e74206973206e6f7420636f727265637400000000000000600082015250565b6000613399601983612ad9565b91506133a482613363565b602082019050919050565b600060208201905081810360008301526133c88161338c565b9050919050565b7f4552433732313a2063616c6c6572206973206e6f7420746f6b656e206f776e6560008201527f72206f7220617070726f76656400000000000000000000000000000000000000602082015250565b600061342b602d83612ad9565b9150613436826133cf565b604082019050919050565b6000602082019050818103600083015261345a8161341e565b9050919050565b7f455243373231456e756d657261626c653a206f776e657220696e646578206f7560008201527f74206f6620626f756e6473000000000000000000000000000000000000000000602082015250565b60006134bd602b83612ad9565b91506134c882613461565b604082019050919050565b600060208201905081810360008301526134ec816134b0565b9050919050565b600081905092915050565b50565b600061350e6000836134f3565b9150613519826134fe565b600082019050919050565b600061352f82613501565b9150819050919050565b7f4661696c656420746f2073656e64204574686572000000000000000000000000600082015250565b600061356f601483612ad9565b915061357a82613539565b602082019050919050565b6000602082019050818103600083015261359e81613562565b9050919050565b7f455243373231456e756d657261626c653a20676c6f62616c20696e646578206f60008201527f7574206f6620626f756e64730000000000000000000000000000000000000000602082015250565b6000613601602c83612ad9565b915061360c826135a5565b604082019050919050565b60006020820190508181036000830152613630816135f4565b9050919050565b7f4e487b7100000000000000000000000000000000000000000000000000000000600052603260045260246000fd5b7f50726573616c65206973206e6f742072756e6e696e6700000000000000000000600082015250565b600061369c601683612ad9565b91506136a782613666565b602082019050919050565b600060208201905081810360008301526136cb8161368f565b9050919050565b6000815190506136e181612cb4565b92915050565b6000602082840312156136fd576136fc612a09565b5b600061370b848285016136d2565b91505092915050565b7f596f7520617265206e6f742077686974656c6973746564000000000000000000600082015250565b600061374a601783612ad9565b915061375582613714565b602082019050919050565b600060208201905081810360008301526137798161373d565b9050919050565b7f4578636565646564206d6178696d756d204d7920426f7973204465767320737560008201527f70706c7900000000000000000000000000000000000000000000000000000000602082015250565b60006137dc602483612ad9565b91506137e782613780565b604082019050919050565b6000602082019050818103600083015261380b816137cf565b9050919050565b7f4552433732313a20696e76616c696420746f6b656e2049440000000000000000600082015250565b6000613848601883612ad9565b915061385382613812565b602082019050919050565b600060208201905081810360008301526138778161383b565b9050919050565b7f4552433732313a2061646472657373207a65726f206973206e6f74206120766160008201527f6c6964206f776e65720000000000000000000000000000000000000000000000602082015250565b60006138da602983612ad9565b91506138e58261387e565b604082019050919050565b60006020820190508181036000830152613909816138cd565b9050919050565b600081905092915050565b600061392682612ace565b6139308185613910565b9350613940818560208601612aea565b80840191505092915050565b6000613958828561391b565b9150613964828461391b565b91508190509392505050565b7f4f776e61626c653a206e6577206f776e657220697320746865207a65726f206160008201527f6464726573730000000000000000000000000000000000000000000000000000602082015250565b60006139cc602683612ad9565b91506139d782613970565b604082019050919050565b600060208201905081810360008301526139fb816139bf565b9050919050565b7f4f776e61626c653a2063616c6c6572206973206e6f7420746865206f776e6572600082015250565b6000613a38602083612ad9565b9150613a4382613a02565b602082019050919050565b60006020820190508181036000830152613a6781613a2b565b9050919050565b7f4552433732313a207472616e736665722066726f6d20696e636f72726563742060008201527f6f776e6572000000000000000000000000000000000000000000000000000000602082015250565b6000613aca602583612ad9565b9150613ad582613a6e565b604082019050919050565b60006020820190508181036000830152613af981613abd565b9050919050565b7f4552433732313a207472616e7366657220746f20746865207a65726f2061646460008201527f7265737300000000000000000000000000000000000000000000000000000000602082015250565b6000613b5c602483612ad9565b9150613b6782613b00565b604082019050919050565b60006020820190508181036000830152613b8b81613b4f565b9050919050565b7f4552433732313a20617070726f766520746f2063616c6c657200000000000000600082015250565b6000613bc8601983612ad9565b9150613bd382613b92565b602082019050919050565b60006020820190508181036000830152613bf781613bbb565b9050919050565b7f4552433732313a207472616e7366657220746f206e6f6e20455243373231526560008201527f63656976657220696d706c656d656e7465720000000000000000000000000000602082015250565b6000613c5a603283612ad9565b9150613c6582613bfe565b604082019050919050565b60006020820190508181036000830152613c8981613c4d565b9050919050565b7f4e487b7100000000000000000000000000000000000000000000000000000000600052601260045260246000fd5b7f455243373231456e756d657261626c653a20636f6e736563757469766520747260008201527f616e7366657273206e6f7420737570706f727465640000000000000000000000602082015250565b6000613d1b603583612ad9565b9150613d2682613cbf565b604082019050919050565b60006020820190508181036000830152613d4a81613d0e565b9050919050565b600081519050919050565b600082825260208201905092915050565b6000613d7882613d51565b613d828185613d5c565b9350613d92818560208601612aea565b613d9b81612b1d565b840191505092915050565b6000608082019050613dbb6000830187612c1e565b613dc86020830186612c1e565b613dd56040830185612d0d565b8181036060830152613de78184613d6d565b905095945050505050565b600081519050613e0181612a3f565b92915050565b600060208284031215613e1d57613e1c612a09565b5b6000613e2b84828501613df2565b91505092915050565b7f4552433732313a206d696e7420746f20746865207a65726f2061646472657373600082015250565b6000613e6a602083612ad9565b9150613e7582613e34565b602082019050919050565b60006020820190508181036000830152613e9981613e5d565b9050919050565b7f4552433732313a20746f6b656e20616c7265616479206d696e74656400000000600082015250565b6000613ed6601c83612ad9565b9150613ee182613ea0565b602082019050919050565b60006020820190508181036000830152613f0581613ec9565b9050919050565b6000613f1782612b89565b9150613f2283612b89565b925082821015613f3557613f34612fef565b5b828203905092915050565b7f4e487b7100000000000000000000000000000000000000000000000000000000600052603160045260246000fdfea2646970667358221220429a76ebaa5ef544ece0ec6c99b799a5ad7676f5fdca42cf78ce034295478f3664736f6c634300080a0033",
  "linkReferences": {},
  "deployedLinkReferences": {}
}