{
  "_format": "hh-sol-artifact-1",
  "contractName": "MyBoysDevsDAO",
  "sourceName": "contracts/MyBoysDevsDAO.sol",
  "abi": [
    {
      "inputs": [
        {
          "internalType": "address",
          "name": "_nftMarketplace",
          "type": "address"
        },
        {
          "internalType": "address",
          "name": "_myBoysDevsNFT",
          "type": "address"
        }
      ],
      "stateMutability": "payable",
      "type": "constructor"
    },
    {
      "anonymous": false,
      "inputs": [
        {
          "indexed": false,
          "internalType": "uint256",
          "name": "amount",
          "type": "uint256"
        },
        {
          "indexed": false,
          "internalType": "bytes",
          "name": "data",
          "type": "bytes"
        }
      ],
      "name": "Fallback",
      "type": "event"
    },
    {
      "anonymous": false,
      "inputs": [
        {
          "indexed": true,
          "internalType": "address",
          "name": "previousOwner",
          "type": "address"
        },
        {
          "indexed": true,
          "internalType": "address",
          "name": "newOwner",
          "type": "address"
        }
      ],
      "name": "OwnershipTransferred",
      "type": "event"
    },
    {
      "stateMutability": "payable",
      "type": "fallback"
    },
    {
      "inputs": [
        {
          "internalType": "uint256",
          "name": "_nftTokenId",
          "type": "uint256"
        }
      ],
      "name": "createProposal",
      "outputs": [
        {
          "internalType": "uint256",
          "name": "",
          "type": "uint256"
        }
      ],
      "stateMutability": "nonpayable",
      "type": "function"
    },
    {
      "inputs": [
        {
          "internalType": "uint256",
          "name": "proposalIndex",
          "type": "uint256"
        }
      ],
      "name": "executeProposal",
      "outputs": [],
      "stateMutability": "nonpayable",
      "type": "function"
    },
    {
      "inputs": [],
      "name": "numProposals",
      "outputs": [
        {
          "internalType": "uint256",
          "name": "",
          "type": "uint256"
        }
      ],
      "stateMutability": "view",
      "type": "function"
    },
    {
      "inputs": [],
      "name": "owner",
      "outputs": [
        {
          "internalType": "address",
          "name": "",
          "type": "address"
        }
      ],
      "stateMutability": "view",
      "type": "function"
    },
    {
      "inputs": [
        {
          "internalType": "uint256",
          "name": "",
          "type": "uint256"
        }
      ],
      "name": "proposals",
      "outputs": [
        {
          "internalType": "uint256",
          "name": "nftTokenId",
          "type": "uint256"
        },
        {
          "internalType": "uint256",
          "name": "deadline",
          "type": "uint256"
        },
        {
          "internalType": "uint256",
          "name": "yayVotes",
          "type": "uint256"
        },
        {
          "internalType": "uint256",
          "name": "nayVotes",
          "type": "uint256"
        },
        {
          "internalType": "bool",
          "name": "executed",
          "type": "bool"
        }
      ],
      "stateMutability": "view",
      "type": "function"
    },
    {
      "inputs": [],
      "name": "renounceOwnership",
      "outputs": [],
      "stateMutability": "nonpayable",
      "type": "function"
    },
    {
      "inputs": [
        {
          "internalType": "address",
          "name": "newOwner",
          "type": "address"
        }
      ],
      "name": "transferOwnership",
      "outputs": [],
      "stateMutability": "nonpayable",
      "type": "function"
    },
    {
      "inputs": [
        {
          "internalType": "uint256",
          "name": "proposalIndex",
          "type": "uint256"
        },
        {
          "internalType": "enum MyBoysDevsDAO.Vote",
          "name": "vote",
          "type": "uint8"
        }
      ],
      "name": "voteOnProposal",
      "outputs": [],
      "stateMutability": "nonpayable",
      "type": "function"
    },
    {
      "inputs": [],
      "name": "withdrawEther",
      "outputs": [],
      "stateMutability": "nonpayable",
      "type": "function"
    }
  ],
  "bytecode": "0x608060405260405162001a2838038062001a28833981810160405281019062000029919062000209565b620000496200003d620000d360201b60201c565b620000db60201b60201c565b81600360006101000a81548173ffffffffffffffffffffffffffffffffffffffff021916908373ffffffffffffffffffffffffffffffffffffffff16021790555080600460006101000a81548173ffffffffffffffffffffffffffffffffffffffff021916908373ffffffffffffffffffffffffffffffffffffffff160217905550505062000250565b600033905090565b60008060009054906101000a900473ffffffffffffffffffffffffffffffffffffffff169050816000806101000a81548173ffffffffffffffffffffffffffffffffffffffff021916908373ffffffffffffffffffffffffffffffffffffffff1602179055508173ffffffffffffffffffffffffffffffffffffffff168173ffffffffffffffffffffffffffffffffffffffff167f8be0079c531659141344cd1fd0a4f28419497f9722a3daafe3b4186f6b6457e060405160405180910390a35050565b600080fd5b600073ffffffffffffffffffffffffffffffffffffffff82169050919050565b6000620001d182620001a4565b9050919050565b620001e381620001c4565b8114620001ef57600080fd5b50565b6000815190506200020381620001d8565b92915050565b600080604083850312156200022357620002226200019f565b5b60006200023385828601620001f2565b92505060206200024685828601620001f2565b9150509250929050565b6117c880620002606000396000f3fe60806040526004361061008a5760003560e01c8063715018a611610059578063715018a61461019b5780637362377b146101b25780638da5cb5b146101c9578063efafb22e146101f4578063f2fde38b1461021d5761008b565b8063013cf08b146100c95780630d61b5191461010a578063400e3949146101335780635a43dc001461015e5761008b565b5b7faf7d7a5ca4e08ba144beb5989ed21279aea556a505214716b7770e9f48735934346000366040516100bf93929190610ef8565b60405180910390a1005b3480156100d557600080fd5b506100f060048036038101906100eb9190610f5b565b610246565b604051610101959493929190610fa3565b60405180910390f35b34801561011657600080fd5b50610131600480360381019061012c9190610f5b565b610289565b005b34801561013f57600080fd5b506101486105e0565b6040516101559190610ff6565b60405180910390f35b34801561016a57600080fd5b5061018560048036038101906101809190610f5b565b6105e6565b6040516101929190610ff6565b60405180910390f35b3480156101a757600080fd5b506101b0610807565b005b3480156101be57600080fd5b506101c761081b565b005b3480156101d557600080fd5b506101de6108bc565b6040516101eb9190611052565b60405180910390f35b34801561020057600080fd5b5061021b60048036038101906102169190611092565b6108e5565b005b34801561022957600080fd5b50610244600480360381019061023f91906110fe565b610cb4565b005b60016020528060005260406000206000915090508060000154908060010154908060020154908060030154908060040160009054906101000a900460ff16905085565b6000600460009054906101000a900473ffffffffffffffffffffffffffffffffffffffff1673ffffffffffffffffffffffffffffffffffffffff166370a08231336040518263ffffffff1660e01b81526004016102e69190611052565b602060405180830381865afa158015610303573d6000803e3d6000fd5b505050506040513d601f19601f820116820180604052508101906103279190611140565b11610367576040517f08c379a000000000000000000000000000000000000000000000000000000000815260040161035e906111ca565b60405180910390fd5b8042600160008381526020019081526020016000206001015411156103c1576040517f08c379a00000000000000000000000000000000000000000000000000000000081526004016103b890611236565b60405180910390fd5b600015156001600083815260200190815260200160002060040160009054906101000a900460ff1615151461042b576040517f08c379a0000000000000000000000000000000000000000000000000000000008152600401610422906112a2565b60405180910390fd5b60006001600084815260200190815260200160002090508060030154816002015411156105be576000600360009054906101000a900473ffffffffffffffffffffffffffffffffffffffff1673ffffffffffffffffffffffffffffffffffffffff166398d5fdca6040518163ffffffff1660e01b8152600401602060405180830381865afa1580156104c1573d6000803e3d6000fd5b505050506040513d601f19601f820116820180604052508101906104e59190611140565b90508047101561052a576040517f08c379a00000000000000000000000000000000000000000000000000000000081526004016105219061130e565b60405180910390fd5b600360009054906101000a900473ffffffffffffffffffffffffffffffffffffffff1673ffffffffffffffffffffffffffffffffffffffff1663efef39a18284600001546040518363ffffffff1660e01b815260040161058a9190610ff6565b6000604051808303818588803b1580156105a357600080fd5b505af11580156105b7573d6000803e3d6000fd5b5050505050505b60018160040160006101000a81548160ff021916908315150217905550505050565b60025481565b600080600460009054906101000a900473ffffffffffffffffffffffffffffffffffffffff1673ffffffffffffffffffffffffffffffffffffffff166370a08231336040518263ffffffff1660e01b81526004016106449190611052565b602060405180830381865afa158015610661573d6000803e3d6000fd5b505050506040513d601f19601f820116820180604052508101906106859190611140565b116106c5576040517f08c379a00000000000000000000000000000000000000000000000000000000081526004016106bc906111ca565b60405180910390fd5b600360009054906101000a900473ffffffffffffffffffffffffffffffffffffffff1673ffffffffffffffffffffffffffffffffffffffff166396e494e8836040518263ffffffff1660e01b81526004016107209190610ff6565b602060405180830381865afa15801561073d573d6000803e3d6000fd5b505050506040513d601f19601f82011682018060405250810190610761919061135a565b6107a0576040517f08c379a0000000000000000000000000000000000000000000000000000000008152600401610797906113d3565b60405180910390fd5b60006001600060025481526020019081526020016000209050828160000181905550610258426107d09190611422565b8160010181905550600260008154809291906107eb90611456565b919050555060016002546107ff919061149e565b915050919050565b61080f610d37565b6108196000610db5565b565b610823610d37565b60004790506000811161086b576040517f08c379a000000000000000000000000000000000000000000000000000000000815260040161086290611544565b60405180910390fd5b6108736108bc565b73ffffffffffffffffffffffffffffffffffffffff166108fc829081150290604051600060405180830381858888f193505050501580156108b8573d6000803e3d6000fd5b5050565b60008060009054906101000a900473ffffffffffffffffffffffffffffffffffffffff16905090565b6000600460009054906101000a900473ffffffffffffffffffffffffffffffffffffffff1673ffffffffffffffffffffffffffffffffffffffff166370a08231336040518263ffffffff1660e01b81526004016109429190611052565b602060405180830381865afa15801561095f573d6000803e3d6000fd5b505050506040513d601f19601f820116820180604052508101906109839190611140565b116109c3576040517f08c379a00000000000000000000000000000000000000000000000000000000081526004016109ba906111ca565b60405180910390fd5b8142600160008381526020019081526020016000206001015411610a1c576040517f08c379a0000000000000000000000000000000000000000000000000000000008152600401610a13906115b0565b60405180910390fd5b60006001600085815260200190815260200160002090506000600460009054906101000a900473ffffffffffffffffffffffffffffffffffffffff1673ffffffffffffffffffffffffffffffffffffffff166370a08231336040518263ffffffff1660e01b8152600401610a909190611052565b602060405180830381865afa158015610aad573d6000803e3d6000fd5b505050506040513d601f19601f82011682018060405250810190610ad19190611140565b90506000805b82811015610c00576000600460009054906101000a900473ffffffffffffffffffffffffffffffffffffffff1673ffffffffffffffffffffffffffffffffffffffff16632f745c5933846040518363ffffffff1660e01b8152600401610b3e9291906115d0565b602060405180830381865afa158015610b5b573d6000803e3d6000fd5b505050506040513d601f19601f82011682018060405250810190610b7f9190611140565b90506000151585600501600083815260200190815260200160002060009054906101000a900460ff16151503610bec578280610bba90611456565b935050600185600501600083815260200190815260200160002060006101000a81548160ff0219169083151502179055505b508080610bf890611456565b915050610ad7565b5060008111610c44576040517f08c379a0000000000000000000000000000000000000000000000000000000008152600401610c3b90611645565b60405180910390fd5b60006001811115610c5857610c57611665565b5b856001811115610c6b57610c6a611665565b5b03610c905780836002016000828254610c849190611422565b92505081905550610cac565b80836003016000828254610ca49190611422565b925050819055505b505050505050565b610cbc610d37565b600073ffffffffffffffffffffffffffffffffffffffff168173ffffffffffffffffffffffffffffffffffffffff1603610d2b576040517f08c379a0000000000000000000000000000000000000000000000000000000008152600401610d2290611706565b60405180910390fd5b610d3481610db5565b50565b610d3f610e79565b73ffffffffffffffffffffffffffffffffffffffff16610d5d6108bc565b73ffffffffffffffffffffffffffffffffffffffff1614610db3576040517f08c379a0000000000000000000000000000000000000000000000000000000008152600401610daa90611772565b60405180910390fd5b565b60008060009054906101000a900473ffffffffffffffffffffffffffffffffffffffff169050816000806101000a81548173ffffffffffffffffffffffffffffffffffffffff021916908373ffffffffffffffffffffffffffffffffffffffff1602179055508173ffffffffffffffffffffffffffffffffffffffff168173ffffffffffffffffffffffffffffffffffffffff167f8be0079c531659141344cd1fd0a4f28419497f9722a3daafe3b4186f6b6457e060405160405180910390a35050565b600033905090565b6000819050919050565b610e9481610e81565b82525050565b600082825260208201905092915050565b82818337600083830152505050565b6000601f19601f8301169050919050565b6000610ed78385610e9a565b9350610ee4838584610eab565b610eed83610eba565b840190509392505050565b6000604082019050610f0d6000830186610e8b565b8181036020830152610f20818486610ecb565b9050949350505050565b600080fd5b610f3881610e81565b8114610f4357600080fd5b50565b600081359050610f5581610f2f565b92915050565b600060208284031215610f7157610f70610f2a565b5b6000610f7f84828501610f46565b91505092915050565b60008115159050919050565b610f9d81610f88565b82525050565b600060a082019050610fb86000830188610e8b565b610fc56020830187610e8b565b610fd26040830186610e8b565b610fdf6060830185610e8b565b610fec6080830184610f94565b9695505050505050565b600060208201905061100b6000830184610e8b565b92915050565b600073ffffffffffffffffffffffffffffffffffffffff82169050919050565b600061103c82611011565b9050919050565b61104c81611031565b82525050565b60006020820190506110676000830184611043565b92915050565b6002811061107a57600080fd5b50565b60008135905061108c8161106d565b92915050565b600080604083850312156110a9576110a8610f2a565b5b60006110b785828601610f46565b92505060206110c88582860161107d565b9150509250929050565b6110db81611031565b81146110e657600080fd5b50565b6000813590506110f8816110d2565b92915050565b60006020828403121561111457611113610f2a565b5b6000611122848285016110e9565b91505092915050565b60008151905061113a81610f2f565b92915050565b60006020828403121561115657611155610f2a565b5b60006111648482850161112b565b91505092915050565b600082825260208201905092915050565b7f4e4f545f415f44414f5f4d454d42455200000000000000000000000000000000600082015250565b60006111b460108361116d565b91506111bf8261117e565b602082019050919050565b600060208201905081810360008301526111e3816111a7565b9050919050565b7f444541444c494e455f4e4f545f45584345454445440000000000000000000000600082015250565b600061122060158361116d565b915061122b826111ea565b602082019050919050565b6000602082019050818103600083015261124f81611213565b9050919050565b7f50524f504f53414c5f414c52454144595f455845435554454400000000000000600082015250565b600061128c60198361116d565b915061129782611256565b602082019050919050565b600060208201905081810360008301526112bb8161127f565b9050919050565b7f4e4f545f454e4f5547485f46554e445300000000000000000000000000000000600082015250565b60006112f860108361116d565b9150611303826112c2565b602082019050919050565b60006020820190508181036000830152611327816112eb565b9050919050565b61133781610f88565b811461134257600080fd5b50565b6000815190506113548161132e565b92915050565b6000602082840312156113705761136f610f2a565b5b600061137e84828501611345565b91505092915050565b7f4e46545f4e4f545f464f525f53414c4500000000000000000000000000000000600082015250565b60006113bd60108361116d565b91506113c882611387565b602082019050919050565b600060208201905081810360008301526113ec816113b0565b9050919050565b7f4e487b7100000000000000000000000000000000000000000000000000000000600052601160045260246000fd5b600061142d82610e81565b915061143883610e81565b92508282019050808211156114505761144f6113f3565b5b92915050565b600061146182610e81565b91507fffffffffffffffffffffffffffffffffffffffffffffffffffffffffffffffff8203611493576114926113f3565b5b600182019050919050565b60006114a982610e81565b91506114b483610e81565b92508282039050818111156114cc576114cb6113f3565b5b92915050565b7f4e6f7468696e6720746f2077697468647261773b20636f6e747261637420626160008201527f6c616e636520656d707479000000000000000000000000000000000000000000602082015250565b600061152e602b8361116d565b9150611539826114d2565b604082019050919050565b6000602082019050818103600083015261155d81611521565b9050919050565b7f444541444c494e455f4558434545444544000000000000000000000000000000600082015250565b600061159a60118361116d565b91506115a582611564565b602082019050919050565b600060208201905081810360008301526115c98161158d565b9050919050565b60006040820190506115e56000830185611043565b6115f26020830184610e8b565b9392505050565b7f414c52454144595f564f54454400000000000000000000000000000000000000600082015250565b600061162f600d8361116d565b915061163a826115f9565b602082019050919050565b6000602082019050818103600083015261165e81611622565b9050919050565b7f4e487b7100000000000000000000000000000000000000000000000000000000600052602160045260246000fd5b7f4f776e61626c653a206e6577206f776e657220697320746865207a65726f206160008201527f6464726573730000000000000000000000000000000000000000000000000000602082015250565b60006116f060268361116d565b91506116fb82611694565b604082019050919050565b6000602082019050818103600083015261171f816116e3565b9050919050565b7f4f776e61626c653a2063616c6c6572206973206e6f7420746865206f776e6572600082015250565b600061175c60208361116d565b915061176782611726565b602082019050919050565b6000602082019050818103600083015261178b8161174f565b905091905056fea2646970667358221220991f806d66a0db01951fad1e38a3195632474db5fb94b668584213d2b07eeca164736f6c63430008110033",
  "linkReferences": {},
  "deployedLinkReferences": {}
}